:020000040800F2
:10000000008001209DBD0008192100081B21000867
:100010001D2100081F210008212100080000000008
:100020000000000000000000000000002321000884
:1000300025210008000000002721000829210008D0
:10004000EDBD0008EDBD0008EDBD0008EDBD0008E8
:10005000EDBD0008EDBD000831210008EDBD000830
:100060003B21000845210008EDBD0008EDBD00085A
:10007000EDBD0008EDBD0008EDBD0008EDBD0008B8
:10008000EDBD0008EDBD0008EDBD0008EDBD0008A8
:10009000EDBD0008EDBD0008EDBD000861210008C0
:1000A000EDBD0008EDBD0008EDBD0008EDBD000888
:1000B000EDBD0008EDBD0008EDBD0008EDBD000878
:1000C000EDBD0008EDBD0008EDBD0008EDBD000868
:1000D000EDBD0008EDBD0008EDBD0008EDBD000858
:1000E000EDBD0008EDBD0008EDBD0008EDBD000848
:1000F000EDBD0008EDBD0008EDBD0008EDBD000838
:10010000EDBD0008EDBD000875210008EDBD00083B
:10011000EDBD00088521000895210008EDBD00080F
:10012000EDBD0008EDBD0008EDBD0008EDBD000807
:10013000EDBD0008EDBD0008EDBD0008EDBD0008F7
:10014000EDBD0008EDBD0008EDBD00080000000099
:10015000EDBD00085121000825220008EDBD000872
:10016000EDBD0008EDBD0008EDBD0008EDBD0008C7
:10017000EDBD0008EDBD000800000000000000001B
:08018000EDBD0008EDBD000813
:1001900010B5054C237833B9044B13B10448AFF3C1
:1001A00000800123237010BD0047002000000000E4
:1001B000F8D2000808B5034B1BB103490348AFF35D
:1001C000008008BD0000000004470020F8D20008AD
:1001D000034613F8012B002AFBD1181A0138704787
:1001E00001F0FF01102A2BDB10F0070F08D010F8E8
:1001F000013B013A8B422DD010F0070F42B3F6D1EC
:10020000F0B441EA012141EA014122F007047FF004
:1002100000070023F0E80256083C85EA010586EA5B
:10022000010685FA47F5A3FA87F586FA47F6A5FA97
:1002300087F68EB9EED1F0BC01F0FF0102F00702A3
:1002400032B110F8013B013A83EA010313B1F8D14E
:100250000020704701387047002D06BF354603382F
:10026000073815F0010F07D1013015F4807F02BF68
:10027000013015F4C03F0130F0BC0138704700BFB9
:1002800081F0004102E000BF83F0004330B54FEA47
:1002900041044FEA430594EA050F08BF90EA020FB4
:1002A0001FBF54EA000C55EA020C7FEA645C7FEA47
:1002B000655C00F0E2804FEA5454D4EB5555B8BF6A
:1002C0006D420CDD2C4480EA020281EA030382EADB
:1002D000000083EA010180EA020281EA0303362D6D
:1002E00088BF30BD11F0004F4FEA01314FF4801C40
:1002F0004CEA113102D0404261EB410113F0004F52
:100300004FEA03334CEA133302D0524263EB430308
:1003100094EA050F00F0A780A4F10104D5F1200EA6
:100320000DDB02FA0EFC22FA05F2801841F1000101
:1003300003FA0EF2801843FA05F359410EE0A5F1D5
:1003400020050EF1200E012A03FA0EFC28BF4CF006
:10035000020C43FA05F3C01851EBE37101F00045BC
:1003600007D54FF0000EDCF1000C7EEB00006EEBC9
:100370000101B1F5801F1BD3B1F5001F0CD3490853
:100380005FEA30004FEA3C0C04F101044FEA4452AA
:1003900012F5800F80F09A80BCF1004F08BF5FEA31
:1003A000500C50F1000041EB045141EA050130BD11
:1003B0005FEA4C0C404141EB0101013C28BFB1F523
:1003C000801FE9D291F0000F04BF01460020B1FA6E
:1003D00081F308BF2033A3F10B03B3F120020CDA41
:1003E0000C3208DD02F1140CC2F10C0201FA0CF01F
:1003F00021FA02F10CE002F11402D8BFC2F1200C84
:1004000001FA02F120FA0CFCDCBF41EA0C01904039
:10041000E41AA2BF01EB0451294330BD6FEA040482
:100420001F3C1CDA0C340EDC04F11404C4F120026D
:1004300020FA04F001FA02F340EA030021FA04F37F
:1004400045EA030130BDC4F10C04C4F1200220FAD6
:1004500002F001FA04F340EA0300294630BD21FA14
:1004600004F0294630BD94F0000F83F4801306BFDA
:1004700081F480110134013D4EE77FEA645C18BFCE
:100480007FEA655C29D094EA050F08BF90EA020F65
:1004900005D054EA000C04BF1946104630BD91EA5D
:1004A000030F1EBF0021002030BD5FEA545C05D160
:1004B0004000494128BF41F0004130BD14F580049F
:1004C0003CBF01F5801130BD01F0004545F0FE4113
:1004D00041F470014FF0000030BD7FEA645C1ABF48
:1004E000194610467FEA655C1CBF0B46024650EA7F
:1004F000013406BF52EA033591EA030F41F40021AB
:1005000030BD00BF90F0000F04BF0021704730B530
:100510004FF4806404F132044FF000054FF0000105
:1005200050E700BF90F0000F04BF0021704730B5C6
:100530004FF4806404F1320410F0004548BF40429B
:100540004FF000013EE700BF42004FEAE2014FEAF0
:1005500031014FEA02701FBF12F07F4393F07F4FCB
:1005600081F06051704732F07F4208BF704793F0CE
:100570007F4F04BF41F40021704730B54FF46074E1
:1005800001F0004521F000411CE700BF50EA0102E4
:1005900008BF704730B54FF000050AE050EA01028D
:1005A00008BF704730B511F0004502D5404261EBFD
:1005B00041014FF4806404F132045FEA915C3FF43E
:1005C000D8AE4FF003025FEADC0C18BF03325FEADB
:1005D000DC0C18BF033202EBDC02C2F1200300FA8C
:1005E00003FC20FA02F001FA03FE40EA0E0021FAB1
:1005F00002F11444BDE600BF70B54FF0FF0C4CF49F
:10060000E06C1CEA11541DBF1CEA135594EA0C0F50
:1006100095EA0C0F00F0DEF82C4481EA030621EA8B
:100620004C5123EA4C5350EA013518BF52EA0335C6
:1006300041F4801143F4801338D0A0FB02CE4FF078
:100640000005E1FB02E506F00042E0FB03E54FF0A8
:100650000006E1FB03569CF0000F18BF4EF0010EA0
:10066000A4F1FF04B6F5007F64F5407404D25FEA9C
:100670004E0E6D4146EB060642EAC62141EA55514F
:100680004FEAC52040EA5E504FEACE2EB4F1FD0C91
:1006900088BFBCF5E06F1ED8BEF1004F08BF5FEA0F
:1006A000500E50F1000041EB045170BD06F00046C1
:1006B00046EA010140EA020081EA0301B4EB5C046E
:1006C000C2BFD4EB0C0541EA045170BD41F4801166
:1006D0004FF0000E013C00F3AB8014F1360FDEBF8B
:1006E000002001F0004170BDC4F10004203C35DA67
:1006F0000C341BDC04F11404C4F1200500FA05F3EA
:1007000020FA04F001FA05F240EA020001F000428A
:1007100021F0004110EBD37021FA04F642EB060100
:100720005EEA430E08BF20EAD37070BDC4F10C042A
:10073000C4F1200500FA04F320FA05F001FA04F2EE
:1007400040EA020001F0004110EBD37041F10001DA
:100750005EEA430E08BF20EAD37070BDC4F12005E5
:1007600000FA05F24EEA020E20FA04F301FA05F24D
:1007700043EA020321FA04F001F0004121FA04F2F5
:1007800020EA020000EBD3705EEA430E08BF20EAC5
:10079000D37070BD94F0000F0FD101F000464000FF
:1007A00041EB010111F4801F08BF013CF7D041EA81
:1007B000060195F0000F18BF704703F00046520085
:1007C00043EB030313F4801F08BF013DF7D043EA56
:1007D0000603704794EA0C0F0CEA135518BF95EA0C
:1007E0000C0F0CD050EA410618BF52EA4306D1D193
:1007F00081EA030101F000414FF0000070BD50EAB2
:10080000410606BF1046194652EA430619D094EA3B
:100810000C0F02D150EA013613D195EA0C0F05D125
:1008200052EA03361CBF104619460AD181EA030179
:1008300001F0004141F0FE4141F470014FF0000031
:1008400070BD41F0FE4141F4780170BD70B54FF0CC
:10085000FF0C4CF4E06C1CEA11541DBF1CEA13554C
:1008600094EA0C0F95EA0C0F00F0A7F8A4EB05042E
:1008700081EA030E52EA03354FEA013100F0888025
:100880004FEA03334FF0805545EA131343EA1263EE
:100890004FEA022245EA111545EA10654FEA0026A3
:1008A0000EF000419D4208BF964244F1FD0404F55C
:1008B000407402D25B084FEA3202B61A65EB0305B8
:1008C0005B084FEA32024FF480104FF4002CB6EB75
:1008D000020E75EB030E22BFB61A754640EA0C00F5
:1008E0005B084FEA3202B6EB020E75EB030E22BF35
:1008F000B61A754640EA5C005B084FEA3202B6EB76
:10090000020E75EB030E22BFB61A754640EA9C0034
:100910005B084FEA3202B6EB020E75EB030E22BF04
:10092000B61A754640EADC0055EA060E18D04FEAC2
:10093000051545EA16754FEA06164FEAC30343EA62
:1009400052734FEAC2025FEA1C1CC0D111F4801F2F
:100950000BD141EA00014FF000004FF0004CB6E728
:1009600011F4801F04BF01430020B4F1FD0C88BFC7
:10097000BCF5E06F3FF6AFAEB5EB030C04BFB6EBD2
:10098000020C5FEA500C50F1000041EB045170BDC5
:100990000EF0004E4EEA113114EB5C04C2BFD4EBF2
:1009A0000C0541EA045170BD41F480114FF0000E76
:1009B000013C90E645EA060E8DE60CEA135594EAF2
:1009C0000C0F08BF95EA0C0F3FF43BAF94EA0C0FF5
:1009D0000AD150EA01347FF434AF95EA0C0F7FF46A
:1009E00025AF104619462CE795EA0C0F06D152EABE
:1009F00003353FF4FDAE1046194622E750EA4106A2
:100A000018BF52EA43067FF4C5AE50EA41047FF4B2
:100A10000DAF52EA43057FF4EBAE12E74FF0FF3C17
:100A200006E000BF4FF0010C02E000BF4FF0010CE8
:100A30004DF804CD4FEA410C7FEA6C5C4FEA430C61
:100A400018BF7FEA6C5C1BD001B050EA410C0CBFB0
:100A500052EA430C91EA030F02BF90EA020F002012
:100A6000704710F1000F91EA030F58BF994208BF79
:100A700090422CBFD8176FEAE37040F00100704736
:100A80004FEA410C7FEA6C5C02D150EA013C07D18D
:100A90004FEA430C7FEA6C5CD6D152EA033CD3D0D8
:100AA0005DF8040B704700BF8446104662468C46D2
:100AB0001946634600E000BF01B5FFF7B7FF002805
:100AC00048BF10F1000F01BD4DF808EDFFF7F4FF2E
:100AD0000CBF012000205DF808FB00BF4DF808EDB9
:100AE000FFF7EAFF34BF012000205DF808FB00BFDC
:100AF0004DF808EDFFF7E0FF94BF012000205DF8FE
:100B000008FB00BF4DF808EDFFF7CEFF94BF0120B2
:100B100000205DF808FB00BF4DF808EDFFF7C4FFAB
:100B200034BF012000205DF808FB00BF4FEA4102FE
:100B300012F5001215D211D56FF47873B3EB62522F
:100B400012D94FEAC12343F0004343EA505311F056
:100B5000004F23FA02F018BF404270474FF00000E8
:100B6000704750EA013005D111F0004008BF6FF026
:100B7000004070474FF00000704700BF4FEA41024D
:100B8000B2F1E04324BFB3F5001CDCF1FE5C0DD9EB
:100B900001F0004C4FEAC0024CEA5070B2F1004F35
:100BA00040EB830008BF20F00100704711F0804F38
:100BB00021D113F13872BCBF01F00040704741F4FD
:100BC00080114FEA5252C2F11802C2F1200C10FA01
:100BD0000CF320FA02F018BF40F001004FEAC123E5
:100BE0004FEAD32303FA0CFC40EA0C0023FA02F389
:100BF0004FEA4303CCE77FEA625307D150EA01335F
:100C00001EBF4FF0FE4040F44000704701F000402E
:100C100040F0FE4040F40000704700BF53B94AB9AD
:100C2000002908BF00281CBF4FF0FF314FF0FF30F4
:100C300000F06EB9ADF1080C6DE904CE00F006F8D5
:100C4000DDF804E0DDE9022304B070472DE9F04748
:100C5000089D04468C46002B40F083808A4217464C
:100C600047D9B2FA82F242B1C2F1200024FA00F070
:100C70009140974040EA010C94404FEA1748230CFA
:100C8000BCFBF8F61FFA87FE08FB16C143EA0143D6
:100C900006FB0EF1994209D9FB1806F1FF3080F0EE
:100CA0001981994240F21681023E3B445B1AA4B27C
:100CB000B3FBF8F008FB103344EA034400FB0EFEDC
:100CC000A64509D93C1900F1FF3380F00581A645FE
:100CD00040F2028102383C4440EA0640A4EB0E0494
:100CE00000261DB1D4400023C5E900433146BDE8CC
:100CF000F08702B9FFDEB2FA82F2002A50D1CB1B94
:100D00004FEA174E1FFA87F80126B3FBFEFC210CB1
:100D10000EFB1C3341EA034108FB0CF38B4207D95D
:100D200079180CF1FF3002D28B4200F2E980844640
:100D3000C91AA3B2B1FBFEF00EFB101143EA014445
:100D400008FB00F8A04507D93C1900F1FF3302D297
:100D5000A04500F2D9801846A4EB080440EA0C40F4
:100D6000BFE78B4209D9002D00F0B1800026C5E90C
:100D7000000130463146BDE8F087B3FA83F6002E15
:100D80004AD18B4202D3824200F2B880841A61EBCE
:100D9000030101208C46002DA8D0C5E9004CA5E731
:100DA000C2F1200320FA03F6974001FA02F04FEA5D
:100DB000174ED9403043030CB1FBFEF61FFA87F8FB
:100DC0000EFB161143EA014306FB08F1994204FAAF
:100DD00002F409D9FB1806F1FF3C80F08D8099429E
:100DE00040F28A80023E3B445B1A81B2B3FBFEF0C4
:100DF0000EFB103341EA034100FB08F38B4207D995
:100E0000791800F1FF3C73D28B4271D90238394412
:100E1000CB1A40EA064678E7C6F1200C03FA06F43E
:100E200022FA0CF31C4320FA0CF701FA06F34FEAFE
:100E3000144E21FA0CF11F433B0CB1FBFEF91FFAD3
:100E400084F80EFB191143EA014109FB08FA8A45AF
:100E500002FA06F200FA06F308D9611809F1FF3028
:100E600048D28A4546D9A9F102092144A1EB0A01D9
:100E7000BFB2B1FBFEF00EFB101147EA014700FBC9
:100E800008F8B84507D9E71900F1FF312ED2B84567
:100E90002CD90238274440EA0940A7EB0807A0FBF9
:100EA00002894F45C64649461AD317D05DB1B3EB08
:100EB0000E0267EB010707FA0CFCF2404CEA020253
:100EC000F740C5E9002700263146BDE8F0872E46E9
:100ED00028460BE70646E9E61846FDE64345E5D217
:100EE000B8EB020E69EB04010138DFE70846D2E7F0
:100EF00060468DE78146B9E7664675E730464AE7C2
:100F0000ACF1020C394413E702383C4424E700BF3B
:100F1000704700BF10B514464FF6FF7392B20248F7
:100F20000AF045FE204610BD24510020184B1B78C6
:100F300003B9704710B5174804F05AFA144B002251
:100F40001A700421144808F0EBFE012800D010BDEF
:100F500001221146104808F0EAFE0A2007F044FA80
:100F600000F040FC0D4C21880D480AF089FF2288D2
:100F700040F20D239A4204D801230A4A13700A4A08
:100F8000137000220121044808F0D1FEDFE700BF02
:100F90003C470020884E00200004004830470020D5
:100FA00020D30008384700202B47002010B5304BD5
:100FB0001B78DBB2012B13D02E4B1B784BB12E4B81
:100FC0001B78012B3FD02D4B01221A70294B002298
:100FD0001A702B4B1B78012B3BD005F081FF10BD05
:100FE000284C217828480AF04BFF2378032B0CD992
:100FF000264B1B78012B18D000231D4A1370214A61
:10100000137023480AF0D8FFD6E70024184B1C7051
:1010100020480AF0D1FF05F02FFF01231E4A13706C
:101020001E4A1480144A1370C6E7184B00221A7027
:101030006FF07F431B221A491A480AF0B8FD1A487C
:101040000AF0BAFFD8E700230B4A1370174A13704F
:10105000B9E7174B1B78002BBFD105F0E3FE06F074
:101060008BF9074B00221A70124B1A785A70B4E7AA
:101070002B4700202A470020254700206C4E0020E7
:10108000744E00202647002030D30008394B002042
:101090006CD3000848D300082747002028470020C9
:1010A000ECD300082450002058D300087A4E0020CA
:1010B000754E0020784E00202DE9F043B9B0202273
:1010C000002129A80AF0D4FE002422942394249419
:1010D000259426948422214601A80AF0C9FE0126FF
:1010E00027964FF4803328930225319503273297B2
:1010F00033960A2334934FF00708CDF8D480369501
:101100004FF00809CDF8DC9027A807F0F3FD0F2376
:1011100022932397249425942694294622A808F004
:10112000D3F844F216130193109411941394179466
:101130004FF080531E9302970396CDF81090CDF890
:101140001480069507954FF08073089301A808F066
:10115000F1FA4FF4007008F08DFF39B0BDE8F0836C
:1011600008B507F01FF9FFF7A7FF00F015F900F029
:101170008BFB00F0A7FA00F0A9FB00F009FC00F0DF
:10118000F1FC00F0ADFE00F0C7FE00F0E1FE00F063
:101190005DFC6349634803F091FF04F0D5FA00F069
:1011A00079FA614B93E80600012004F093FB5F4855
:1011B00004F01EF904F078FF5D4809F023FC5D4857
:1011C00009F020FC5C4CFF225C4920460AF02CF818
:1011D0002268136843F010031360012258495948EC
:1011E00009F0B8FF02F0DAF802F0AEF856480AF05B
:1011F00047FE3BE00024554B1C70554D2878224695
:101200004FF4FA7101F094F92C7001224FF48061CF
:10121000504808F08CFD00F011FD2CE04E4C0122EE
:101220002021204608F083FD322007F0DDF800225F
:101230002021204608F07BFD0023484A1370484ACD
:1012400013601CE002F0D4FC1DE002F03FFC1EE045
:10125000444B1B78062B59D0334B93E806000120F2
:1012600004F038FBFFF762FEFFF7A0FE374B1B7858
:10127000DBB2012BBED0394B1B78002BCED13A4BC1
:101280001B78012BDED0394B1B78002BDDD103F00E
:10129000C1FB374B1B78002BE4D0364C0122214692
:1012A0002B2004F091F8217833480AF0E9FD04F08E
:1012B00067FA2F4B00221A701C4C204604F098F855
:1012C000E278194BDB789A42C6D12C480AF074FEBA
:1012D000244B19780131C9B2197029480AF0D0FDA0
:1012E000284C217828480AF0CBFD2378052BAFD96C
:1012F0001C4A12789342AFD1244B01221A70194B29
:1013000000221A7022480AF057FEA5E71F4B01225F
:101310001A70144B00221A701D480AF04DFE9BE70C
:101320009CDE0008345200201C470020884E00201C
:10133000A44F0020E44F0020245000203449002016
:101340006C4C0020A450002084D3000839470020B2
:101350006C4700200008004800180048344700206F
:101360004847002024470020494B00203B4B0020E9
:10137000704700202C47002098D30008ACD3000809
:10138000B4D3000842450020C8D300082B470020F2
:10139000E0D30008704700002DE9F04F8FB0002423
:1013A00009940A940B940C940D94B14BDA6C42F0AE
:1013B0001002DA64DA6C02F010020192019ADA6C1F
:1013C00042F02002DA64DA6C02F020020292029A01
:1013D000DA6C42F08002DA64DA6C02F08002039286
:1013E000039ADA6C42F00402DA64DA6C02F0040266
:1013F0000492049ADA6C42F00102DA64DA6C02F0C8
:1014000001020592059ADA6C42F00202DA64DA6CA3
:1014100002F002020692069ADA6C42F04002DA64A6
:10142000DA6C02F040020792079ADA6C42F0080286
:10143000DA64DB6C03F008030893089B08F062FE93
:101440008C4F224641F22401384608F070FC0122FC
:1014500040F64141384608F06AFCDFF82CB22246DB
:1014600041F60321584608F062FC224652214FF013
:10147000904008F05CFC012280214FF0904008F081
:1014800056FC7D4E22464FF40361304608F04FFC77
:1014900001228021304608F04AFCDFF8F091224614
:1014A0004EF22121484608F042FC01224FF48E51B1
:1014B000484608F03CFC22464FF4BE416F4808F015
:1014C00036FC01224AF203016C4808F030FCDFF8D8
:1014D000C0812246E021404608F029FC0122082173
:1014E000404608F024FC41F66543099301250A951E
:1014F0000B940C9409A9384608F028FB4FF0080A11
:10150000CDF824A05E4B0A930B9409A9384608F045
:101510001DFB4FF4647309930A940B9409A9384690
:1015200008F014FB41F6032309930A950B940C94DD
:1015300009A9584608F00AFB04270997504B0A935B
:101540000B9409A9304608F001FB202309934C4B6A
:101550000A930B9409A94FF0904008F0F7FA099507
:10156000484B0A930B9409A94FF0904008F0EEFA0B
:10157000D22309930A950B940C9409A94FF090403B
:1015800008F0E4FA4FF44B6309930A950B940C941A
:1015900009A9304608F0DAFA4FF2E13309930A95C7
:1015A0000B940C9409A9484608F0D0FA09970A94BC
:1015B0000B9409A9484608F0C9FA4FF4604309930F
:1015C0000A940B9409A9584608F0C0FA40F2171380
:1015D00009930A940B9409A9404608F0B7FA4FF60C
:1015E000037309930A950B940C9409A9234808F0F6
:1015F000ADFAE82309930A950B940C9409A9404687
:1016000008F0A4FA4FF4507309930A940B9409A9B3
:10161000304608F09BFA4FF4E06309930A940B9468
:1016200009A94FF0904008F091FA22462146062081
:1016300008F082FD062008F0B3FD22462146504600
:1016400008F07AFD504608F0ABFD224621460920FD
:1016500008F072FD092008F0A3FD2246214617205C
:1016600008F06AFD172008F09BFD0FB0BDE8F08F71
:10167000001002400010004800080048000C00481C
:101680000000111000003110001400480004004850
:101690000018004800B587B00023049305934FF469
:1016A00080730193054B02930123039301A904481E
:1016B00008F04CFA07B05DF804FB00BF00002110F1
:1016C0000014004800B587B00023009301930293F3
:1016D0000393049305932448244A02604360836083
:1016E000C360012202610421416103764376022135
:1016F000C16180F8202042628362C36280F830308A
:10170000436380F8383006F0D5F820BB184B0093BF
:1017100006230193002302937F2203920422049262
:1017200005936946104806F04DFAB8B90A2006F04C
:101730005BFE104B00930C230193062302937F233F
:101740000393042304936946074806F03BFA40B923
:1017500007B05DF804FBFFF71DFED7E7FFF71AFEA1
:10176000E4E7FFF717FEF3E7904E00200002045075
:10177000400020190020903600B589B00023039363
:1017800004930593069307930268144B9A4202D080
:1017900009B05DF804FB03F17043A3F5F933DA6C8B
:1017A00042F40052DA64DA6C02F400520192019AB7
:1017B000DA6C42F02002DA64DB6C03F0200302935F
:1017C000029B4FF4816303930B230493002305933F
:1017D00003A9034808F0BAF9DAE700BF0002045091
:1017E0000014004830B583B000230193012412E0B7
:1017F000224D284606F0CEFC4FF6FF71284606F033
:1018000059F9284606F0DAF902AB03EB440323F852
:10181000040C0134E4B2022CEAD9BDF8062040F2EF
:10182000BC7303FB02F31B13154A1380BDF8083089
:101830004FF4257202FB03F2120B1249A1FB0201C5
:10184000C90801EB8101A2EB410292B2042A0ED930
:1018500003EB43135B001B130233094A538005203B
:1018600006F0C2FD054806F054FD03B030BD03EBA1
:1018700043135B001B13024A5380F0E7904E002095
:1018800030470020CDCCCCCC00B583B00E4B9A6C49
:1018900042F001029A649A6C02F001020092009AEE
:1018A0009A6C42F002029A649B6C03F0020301936B
:1018B000019B00221146452008F03EFC452008F01F
:1018C0006FFC03B05DF804FB0010024008B512483D
:1018D000124B0360124B4360002383600122C260FD
:1018E000036143618361C361036206F0FDFE50B989
:1018F0000021094807F002F940B90021064807F025
:101900002BF930B908BDFFF745FDF1E7FFF742FDC0
:10191000F3E7FFF73FFDF5E7F44E0020005C0040E1
:10192000EB9B900010B588B00023039304930593BC
:10193000069307930268134B9A4201D008B010BD7A
:10194000114CE36C43F00403E364E36C03F0040321
:101950000193019B03230393122204920122059217
:1019600006930423079303A9084808F0EFF8A36D32
:1019700043F40003A365A36D03F400030293029BE9
:10198000DCE700BF005C0040001002400008004897
:1019900008B51048104B03604FF482734360002376
:1019A00083604FF4E062C260036143614FF40072F0
:1019B00082611822C2610362436283620722C262AB
:1019C00003630823436308F0F3FC00B908BDFFF785
:1019D000E1FCFBE7404F00200030014000B589B03A
:1019E0000023039304930593069307930268154B12
:1019F0009A4202D009B05DF804FB03F560431A6E09
:101A000042F480521A661A6E02F480520192019AD0
:101A1000DA6C42F01002DA64DB6C03F0100302931C
:101A2000029B4FF460430393022304930023059326
:101A3000032306930523079303A9034808F086F8B8
:101A4000D8E700BF003001400010004800B585B065
:101A500000230193029303930E480F4A0260092268
:101A60004260836041F28732C260836109F016F9F7
:101A700050B900230193039301A9064809F01EFB06
:101A800028B905B05DF804FBFFF784FCF1E7FFF728
:101A900081FCF6E7E44F00200010004000B583B061
:101AA0000368174A934205D0164A934215D003B0F3
:101AB0005DF804FB144B9A6D42F008029A659B6D29
:101AC00003F008030093009B00221146322008F027
:101AD00033FB322008F064FBE9E70B4B9A6D42F0D0
:101AE00010029A659B6D03F010030193019B002285
:101AF0001146362008F020FB362008F051FBD6E7CF
:101B0000000C0040001000400010024000B587B0FB
:101B100000230193029303930493059302680F4BF0
:101B20009A4202D007B05DF804FB03F50133DA6C8A
:101B300042F02002DA64DB6C03F020030093009B88
:101B400080230193022302930022039204920593BF
:101B500001A9034807F0FAFFE4E700BF000C0040CA
:101B60000014004800B58FB000230A930B930C9328
:101B70000D930793089309930093019302930393A2
:101B80000493059306932148214A0260042242608F
:101B900083607C22C2600361836109F07FF830BBFF
:101BA0004FF480530A930AA9184809F097F908BB23
:101BB000164809F08DF800BB00230793099307A985
:101BC000124809F07BFAD8B9602300933C230193B3
:101BD000002302930493042269460C4809F0D8F8C4
:101BE00088B90A48FFF792FF0FB05DF804FBFFF7D2
:101BF000D1FBD5E7FFF7CEFBDAE7FFF7CBFBDBE75F
:101C0000FFF7C8FBE0E7FFF7C5FBEAE7A44F0020BA
:101C1000000C004030B589B005460C4660230193A6
:101C200002920023039305930A4601A909F0B0F834
:101C30002146284609F0D2F909B030BD08B5044B59
:101C40002C221A600421034809F0C8F908BD00BF1E
:101C5000F8440020A44F002008B50421014809F0F1
:101C6000EFF908BDA44F002010B504460268784B78
:101C70001B689A4205D02268764B1B689A422ED088
:101C800010BD754B1A6842F69D139A421BD8724BD1
:101C90001B68724AD35C8033C3EB431203EB8203AD
:101CA0001A46002B0CDB12126D4B1A606A490B6846
:101CB00001330B60D2B204216548FFF7ABFFDAE7CE
:101CC00003F1FF02EFE7FFF7C7FF00224FF4806147
:101CD000644808F02CF8604B2C221A60CBE7624A6B
:101CE000138801339BB21380C72B71D85F4A1388C6
:101CF00001339BB213804EF65F22934205D95B4BB2
:101D000000221A805A4B01221A705A4B1B78DBB200
:101D1000012B6FD0584B1B78DBB2012B00F0878072
:101D2000564B1B789BB1564A13889BB201339BB22A
:101D3000138013889BB2B3F5C87F08D300234F4AA2
:101D400013704F4A13804F4B1A784F4B1A704F4BFA
:101D50001B7883B14E4A138801339BB21380B3F5CD
:101D60007A7F08D34B4B1A784B4B1A700023484AA2
:101D70001380464A1370494B1B7873B1484A138845
:101D800001339BB21380C72B07D90023434A13703A
:101D9000434A1380434B01221A70434B1B7873B1A3
:101DA000424A138801339BB21380B3F5FA6F06D30E
:101DB000002313803C4A13703D4B01221A703D4BA7
:101DC0001B78002B3FF45CAF013B3A4A137057E796
:101DD000134600221A804FF48051374807F0ACFFB9
:101DE0002021364807F0A8FF01223549354809F07F
:101DF000B1F97BE7344A13889BB201339BB213805D
:101E0000324B1B889BB23249A1FB0313128892B25A
:101E1000B2EB930FFFF47EAF0023164A13702A4AE9
:101E200013802A4A13802B4B01221A7072E72A4B27
:101E30001A6801321A601A6848F69F439A427FF680
:101E40006FAF254B00221A60244B01221A7067E7FE
:101E5000A44F0020E44F0020F844002000000020A0
:101E60004047002000080048364700203E47002039
:101E70003C4700206D4700204C470020424B00208B
:101E8000404B0020384B0020434B0020724E002076
:101E9000704E00206D4E00206C4E0020484B0020FC
:101EA000464B00203B4B00202747002028470020BE
:101EB0002A470020754E0020001400480004004806
:101EC0006C4C0020A45000203A4700206E470020B0
:101ED000CDCCCCCC394700204847002034470020E7
:101EE00008B50B480B4B03604FF4165343600023B7
:101EF0008360C36003610C2242618361C36103623A
:101F0000436209F0F5FE00B908BDFFF743FAFBE7AD
:101F1000A45000200050004008B50B480B4B036054
:101F20004FF4E133436000238360C36003610C22FC
:101F300042618361C3610362436209F0D9FE00B963
:101F400008BDFFF727FAFBE72451002000440040BA
:101F500008B50B480B4B03604FF416534360002346
:101F60008360C36003610C22426183610362436248
:101F700009F0BEFE00B908BDFFF70CFAFBE700BF91
:101F80002450002000800040F0B58DB0002307935E
:101F9000089309930A930B930368564A934208D017
:101FA0000446554A934242D0544A934261D00DB000
:101FB000F0BD534B9A6D42F480129A659A6D02F40B
:101FC00080120092009ADA6C42F00402DA64DA6C51
:101FD00002F004020192019ADA6C42F00802DA641B
:101FE000DB6C03F008030293029B4FF480530793CA
:101FF000022708970126099603250A9508240B94C1
:1020000007A9404807F0A2FD042307930897099603
:102010000A950B9407A93C4807F098FD0022114649
:10202000352008F089F8352008F0BAF8BFE7344BBE
:102030009A6D42F400329A659A6D02F4003203926E
:10204000039ADA6C42F00802DA64DB6C03F00803EE
:102050000493049B602307930223089300230993AE
:1020600003230A9307230B9307A9274807F06EFD64
:102070009DE7234BDA6D42F00102DA65DA6D02F07A
:1020800001020592059ADA6C42F00202DA64DB6C16
:1020900003F002030693069B4FF440630793022369
:1020A00008930025099503230A9308230B9307A996
:1020B000164807F04BFD1648164B03600423436097
:1020C0008560C5608023036145618561C5610562E6
:1020D00007F060FE58B90E4BE3669C620022114681
:1020E000462008F029F8462008F05AF85FE7FFF785
:1020F00051F9F0E7005000400044004000800040EB
:102100000010024000080048000C0048000400488D
:10211000EC510020800402407047FEE7FEE7FEE736
:10212000FEE770477047704708B506F04BF908BDE9
:1021300008B5012007F008FE08BD08B5042007F027
:1021400003FE08BD08B5082007F0FEFD08BD00002D
:1021500008B5024807F022FF08BD00BFEC5100207F
:1021600008B5202007F0F0FD4FF4807007F0ECFD7B
:1021700008BD000008B5024808F05FFC08BD00BFBC
:10218000A44F002008B5024809F0B8F908BD00BF07
:10219000A450002008B5024808F04FFC08BD00BF5D
:1021A000E44F00200368DA6912F0100F2DD070B5EB
:1021B0000446164A934200D070BD10221A6203688A
:1021C000DA699B8C124B1B685D6809F083F8114B30
:1021D0001B7863B1104DFF2632460021284609F0D6
:1021E00047FE32462946204609F01EF8E4E7AAB227
:1021F000C2F1FF020849094809F02CFEED43084BE3
:102200001D70044B01221A70E4E770470080004003
:10221000EC510020494B002034490020344A002072
:102220004A4B002008B5074B1B68DB6913F0100F01
:1022300003D1044809F062F908BD0248FFF7B2FF74
:10224000F7E700BF2450002082B00A4B1A6E42F01C
:1022500001021A661A6E02F001020092009A9A6D4B
:1022600042F080529A659B6D03F080530193019B6D
:1022700002B070470010024010B50446012805D096
:10228000042C18D0B4F5807F19D010BD01214FF077
:10229000904007F045FD012806D00C4B01221A7032
:1022A0000B4809F089FEEBE7084B00221A70094839
:1022B00009F082FEE4E7084809F07EFEE2E70748FD
:1022C00009F07AFE064B01221A70DEE74C47002027
:1022D00038D4000824D4000848D400085CD400088E
:1022E0007047002038B504460D46052818D90B283C
:1022F00003D80638C4B2022313E0112804D8A0F191
:102300000C03DCB201230CE0172804D8A0F112035F
:10231000DCB2022305E0804809F0B2FD0220F2E0C1
:102320000123052C00F2F080012D00F2E880052C3D
:1023300000F2EF80DFE804F0032F5B738BB7012D11
:102340000AD01DBB012B19D000224FF480517348D5
:1023500007F0EDFC2846D6E0012B07D001224FF410
:1023600080516E4807F0E3FC2046CCE001224FF498
:1023700000616A4807F0DBFC2046C4E000224FF40D
:102380000061664807F0D3FC2846BCE0644809F0C9
:1023900077FD2046B7E0012D0AD01DBB012B19D0D7
:1023A00000224FF400615D4807F0C1FC2846AAE016
:1023B000012B07D001224FF40061584807F0B7FC09
:1023C0000020A0E001224FF48061544807F0AFFCE8
:1023D000002098E000224FF48061504807F0A7FCED
:1023E000284690E04E4809F04BFD00208BE0012D7F
:1023F00008D07DB900224FF40071484807F097FCDF
:10240000284680E001224FF40071444807F08FFC19
:10241000002078E0424809F033FD002073E0012DF0
:1024200008D07DB900224FF480713C4807F07FFC52
:10243000284668E001224FF48071384807F077FCA5
:10244000002060E0364809F01BFD00205BE0012D14
:102450000AD01DBB012B19D000224FF40041314896
:1024600007F065FC28464EE0012B07D001224FF40F
:1024700000412C4807F05BFC002044E001224FF4AF
:102480008041284807F053FC00203CE000224FF434
:102490008041244807F04BFC284634E0204809F0EE
:1024A000EFFC00202FE0012D0AD01DBB012B19D01D
:1024B00000224FF480411B4807F039FC284622E0F7
:1024C000012B07D001224FF48041164807F02FFC62
:1024D000002018E001224FF40051124807F027FCB9
:1024E000002010E000224FF400510E4807F01FFCBE
:1024F000284608E00A4809F0C3FC002003E00A4827
:1025000009F0BEFC012038BD084809F0B9FC0220E2
:10251000F9E70020F7E700BF70D40008000C00487E
:1025200084D400080004004894D40008A4D400080F
:1025300070B5544B1980544B1870172800F29D80C9
:10254000054614464F4B1B889BB2002B00F095802C
:10255000012A00F28D8004D00646002C44D00020D1
:102560008FE00126494B1E70002280214FF09040E1
:1025700007F0DDFB32464FF48041454807F0D7FBBA
:10258000052D0CD90B2D19D9112D24D8002201218C
:102590003F4807F0CCFBA5F10C06F6B206E000229E
:1025A0004FF400513A4807F0C2FB2E46052005F0D3
:1025B0001BFF01212846FFF795FECEE700224FF4CE
:1025C0000041334807F0B3FBAE1FF6B23146314845
:1025D00009F056FCEAE7002202212D4807F0A7FB8C
:1025E000A5F11206F6B2E1E700212846FFF77AFED0
:1025F000052E0BD90B2E1DD9112E22D9172E26D818
:1026000001220221224807F092FB05E001224FF44B
:1026100000511F4807F08BFB012280214FF09040B2
:1026200007F085FB00224FF48041194807F07FFB3B
:10263000204626E001224FF40041154807F077FBC1
:10264000EAE701221146124807F071FBE4E712485D
:1026500009F016FC012280214FF0904007F067FB43
:1026600000224FF480410A4807F061FB022008E095
:102670000A4809F005FC012003E0094809F000FCC4
:10268000022070BD6E4700206C4700206D4700207F
:10269000000C0048B8D40008C8D40008DCD40008F6
:1026A000F0D4000838B54B1EDBB2012B45D80546E7
:1026B0000C4601290BD00020022C3FD13DB3012D47
:1026C0002BD0022D2ED0032D31D0FF2036E038B193
:1026D00001280BD002280FD0032812D0FF20EBE7EF
:1026E0004FF40051164807F01BFBE5E74FF400419B
:1026F000134807F015FBDFE70221124807F010FB33
:10270000DAE74FF48071104807F00AFBD4E74FF482
:1027100080410B4807F004FB10E00121094807F055
:10272000FFFA0BE08021084807F0FAFA06E04FF4C0
:102730000071054807F0F4FA00E0FF2038BD00BF43
:1027400000140048001800480010004838B504463E
:1027500001224FF400716C4807F0E9FA00220121D0
:102760006A4807F0E4FA032C2BD9072C51D90B2C1B
:102770006DD90F2C40F28A80132C40F2A480172CC4
:1027800000F2BE80604D00224FF48071284607F0B1
:10279000CEFA322005F028FEA4F114000121C0B2C7
:1027A000FFF780FFB0FA80F04009594B18550A2016
:1027B00005F01AFE01224FF48071284607F0B7FA9F
:1027C0001BE0524D00224FF48061284607F0AFFA1B
:1027D000322005F009FE01212046FFF763FFB0FA21
:1027E00080F040094A4B18550A2005F0FDFD0122F2
:1027F0004FF48061284607F09AFA00224FF40071E6
:10280000414807F094FA01221146404807F08FFA38
:1028100038BD3E4D00224FF40061284607F087FA8C
:10282000322005F0E1FD201F0121C0B2FFF73AFF81
:10283000B0FA80F04009364B18550A2005F0D4FD57
:1028400001224FF40061284607F071FAD5E72E4DBA
:1028500000224FF48051284607F069FA322005F033
:10286000C3FDA4F108000121C0B2FFF71BFFB0FABD
:1028700080F04009264B18550A2005F0B5FD0122CD
:102880004FF48051284607F052FAB6E71E4D002259
:102890004021284607F04BFA322005F0A5FDA4F1AF
:1028A0000C000121C0B2FFF7FDFEB0FA80F0400934
:1028B000174B18550A2005F097FD012240212846A4
:1028C00007F035FA99E7104D00228021284607F0DD
:1028D0002EFA322005F088FDA4F110000121C0B2CB
:1028E000FFF7E0FEB0FA80F04009094B18550A20C6
:1028F00005F07AFD01228021284607F018FA7CE7CE
:10290000044809F0BDFA78E70004004800100048C8
:102910007447002000D500082DE9F04F93B0C54C56
:1029200001224FF40071204607F001FAC24D002247
:102930000121284607F0FBF900224FF48061284668
:1029400007F0F5F9322005F04FFD01210020FFF7D7
:10295000A9FEB0FA80F35B09009301210846FFF756
:10296000A1FEB0FA80FB4FEA5B1B01210220FFF7BA
:1029700099FEB0FA80F25209019201210320FFF77B
:1029800091FEB0FA80F1490902910A2005F02CFD70
:1029900001224FF48061284607F0C9F900224FF464
:1029A0000061284607F0C3F9322005F01DFD012122
:1029B0000020FFF777FEB0FA80F040090390012174
:1029C0000846FFF76FFEB0FA80F6760904960121FB
:1029D0000220FFF767FEB0FA80F77F090597012113
:1029E0000320FFF75FFEB0FA80F0400906900A204E
:1029F00005F0FAFC01224FF40061284607F097F930
:102A000000224FF48051204607F091F9322005F062
:102A1000EBFC01210020FFF745FEB0FA80F67609B5
:102A2000079601210846FFF73DFEB0FA80F77F09BF
:102A3000089701210220FFF735FEB0FA80FC6046BE
:102A40004009099001210320FFF72CFEB0FA80FC19
:102A5000664676090A960A2005F0C6FC01224FF464
:102A60008051204607F063F900224021204607F0FC
:102A70005EF9322005F0B8FC01210020FFF712FEBC
:102A8000B0FA80FA4FEA5A1A01210846FFF70AFE07
:102A9000B0FA80FC67467F090B9701210220FFF7FF
:102AA00001FEB0FA80FC614649090C910121032026
:102AB000FFF7F8FDB0FA80FC604640090D900A204F
:102AC00005F092FC01224021204607F030F9002257
:102AD0008021204607F02BF9322005F085FC0121EA
:102AE0000020FFF7DFFDB0FA80FC664676090E96FF
:102AF00001210846FFF7D6FDB0FA80FC67467F0942
:102B00000F9701210220FFF7CDFDB0FA80FC60464F
:102B10004009109001210320FFF7C4FDB0FA80FCAA
:102B20006646760911960A2005F05EFC0122802196
:102B3000204607F0FCF800224FF48071204607F091
:102B4000F6F8322005F050FC01210020FFF7AAFD25
:102B5000B0FA80F94FEA591901210846FFF7A2FDA2
:102B6000B0FA80F84FEA581801210220FFF79AFDC9
:102B7000B0FA80F77F0901210320FFF793FDB0FA37
:102B800080F676090A2005F02FFC01224FF48071AF
:102B9000204607F0CCF800224FF40071204607F0E1
:102BA000C6F801221146284607F0C1F8009B43EA07
:102BB0004B00019A40EA8200029940EAC100039B5F
:102BC00040EA0310049B40EA4310059B40EA83104F
:102BD000069B40EAC310194B1870079A089942EAFD
:102BE0004100099A40EA82000A9A40EAC20040EA9B
:102BF0000A100B9A40EA42100C9940EA81100D9A93
:102C000040EAC21058700E9A0F9942EA4100109A99
:102C100040EA8200119A40EAC20040EA091949EAF2
:102C2000481848EA871747EAC6169E7013B0BDE8F1
:102C3000F08F00BF000400480010004850470020FB
:102C4000F8B5044601221021B84807F070F80122B7
:102C50004FF48041B64807F06AF801224FF4007142
:102C6000B44807F064F800220121B34807F05FF888
:102C7000032C41D9072C40F288800B2C40F2BA80FB
:102C80000F2C40F2EC80132C40F21A81172C00F22A
:102C90004881A74D00220221284607F048F8052068
:102CA00005F0A2FB01224FF48061284607F03FF8AF
:102CB000A04E00224FF48071304607F038F83C20D7
:102CC00005F092FBA4F114000221C0B2FFF7EAFC68
:102CD0009A4B185501224FF48071304607F027F8BF
:102CE00000224FF48061284607F021F801220221DA
:102CF000284607F01CF831E08D4D00224FF40051BA
:102D0000284607F014F8052005F06EFB01224FF469
:102D10008051284607F00BF8874E00224FF480615F
:102D2000304607F004F83C2005F05EFB0221204607
:102D3000FFF7B8FC814B185501224FF480613046F3
:102D400006F0F5FF00224FF48051284606F0EFFF11
:102D500001224FF40051284606F0E9FF002210211D
:102D6000724806F0E4FF00224FF48041704806F0FC
:102D7000DEFF00224FF400716E4806F0D8FF0122FA
:102D800011466D4806F0D3FFF8BD694D00224FF49F
:102D90000051284606F0CBFF052005F025FB654EC7
:102DA00001224FF40041304606F0C1FF624F00227D
:102DB0004FF40061384606F0BAFF3C2005F014FBE2
:102DC000201F0221C0B2FFF76DFC5C4B1855012299
:102DD0004FF40061384606F0AAFF00224FF400418C
:102DE000304606F0A4FF01224FF40051284606F0B9
:102DF0009EFFB3E74E4D00224FF40041284606F0F7
:102E000096FF052005F0F0FA01224FF48061284674
:102E100006F08DFF474E00224FF48051304606F0F9
:102E200086FF3C2005F0E0FAA4F108000221C0B2C0
:102E3000FFF738FC414B185501224FF480513046C2
:102E400006F075FF00224FF48061284606F06FFF00
:102E500001224FF40041284606F069FF7EE7344D19
:102E600000220121284606F062FF052005F0BCFA89
:102E700001224FF48051284606F059FF2D4E0022C2
:102E80004021304606F053FF3C2005F0ADFAA4F196
:102E90000C000221C0B2FFF705FC284B1855012297
:102EA0004021304606F043FF00224FF4805128466F
:102EB00006F03DFF01221146284606F038FF4DE797
:102EC0001B4E00220121304606F031FF052005F09F
:102ED0008BFA184D01224FF40041284606F027FFD7
:102EE00000228021284606F022FF3C2005F07CFAD3
:102EF000A4F110000221C0B2FFF7D4FB0F4B18550C
:102F000001228021284606F012FF00224FF40041E2
:102F1000284606F00CFF01221146304606F007FF56
:102F20001CE7074808F0ACFF18E700BF000800489E
:102F3000000C0048000400480010004854470020DE
:102F400010D500082DE9F047EA4E00253580B57010
:102F5000DFF8ACA301221021504606F0E8FEE64F50
:102F600001224FF48041384606F0E1FEDFF89483F9
:102F700001224FF40071404606F0D9FEDFF8889335
:102F80002A460121484606F0D2FE2A464FF4005157
:102F9000384606F0CCFE01224FF48051384606F048
:102FA000C6FE2A464FF48061484606F0C0FE3C202B
:102FB00005F01AFA02212846FFF774FBCF4C207067
:102FC00002210120FFF76EFB607002210846FFF727
:102FD00069FBA07002210320FFF764FBE07001226F
:102FE0004FF48061484606F0A2FE2A464FF4805115
:102FF000384606F09CFE01224FF40041404606F0A0
:1030000096FE2A464FF40061484606F090FE3C20AA
:1030100005F0EAF902212846FFF744FB207102215E
:103020000120FFF73FFB607102210846FFF73AFBE2
:10303000A07102210320FFF735FBE07101224FF45C
:103040000061484606F073FE2A464FF400414046B0
:1030500006F06DFE01224FF40051384606F067FE7F
:103060002A464FF40041384606F061FE01224FF433
:103070008061384606F05BFE2A464FF48051404698
:1030800006F055FE3C2005F0AFF902212846FFF777
:1030900009FB207202210120FFF704FB607202216C
:1030A0000846FFF7FFFAA07202210320FFF7FAFAA1
:1030B000E07201224FF48051404606F038FE2A4665
:1030C0004FF48061384606F032FE01224FF4004191
:1030D000384606F02CFE2A460121384606F027FE27
:1030E00001224FF48051384606F021FE2A46402145
:1030F000404606F01CFE3C2005F076F902212846E9
:10310000FFF7D0FA207302210120FFF7CBFA60739A
:1031100002210846FFF7C6FAA07302210320FFF739
:10312000C1FAE07301224021404606F000FE2A4623
:103130004FF48051384606F0FAFD01221146384618
:1031400006F0F5FD2A460121384606F0F0FD012281
:103150004FF40041404606F0EAFD2A4680214046F1
:1031600006F0E5FD3C2005F03FF902212846FFF777
:1031700099FA207402210120FFF794FA6074022169
:103180000846FFF78FFAA07402210320FFF78AFA9E
:10319000E07401228021404606F0C9FD2A464FF422
:1031A0000041404606F0C3FD01221146384606F0B4
:1031B000BEFD2A460221384606F0B9FD01224FF431
:1031C0008061384606F0B3FD2A464FF480714046D0
:1031D00006F0ADFD3C2005F007F902212846FFF777
:1031E00061FA207502210120FFF75CFA6075022167
:1031F0000846FFF757FAA07502210320FFF752FA9D
:10320000E07501224FF48071404606F090FD2A4699
:103210004FF48061384606F08AFD012202213846CB
:1032200006F085FD2A461021504606F080FD2A460C
:103230004FF48041384606F07AFD2A464FF400717B
:10324000404606F074FD01221146484606F06FFD27
:1032500094F90030627843EA42035BB2A27843EA11
:1032600082035BB2E27843EAC2035BB2227943EAAB
:1032700002135BB2627943EA42135BB2A27943EA7A
:1032800082135BB2E27943EAC213337094F90830D7
:10329000627A43EA42035BB2A27A43EA82035BB2F8
:1032A000E27A43EAC2035BB2227B43EA02135BB2D7
:1032B000627B43EA42135BB2A27B43EA82135BB2B6
:1032C000E27B43EAC213737094F91030627C43EAE4
:1032D00042035BB2A27C43EA82035BB2E27C43EA34
:1032E000C2035BB2227D43EA02135BB2627D43EA12
:1032F00042130BE044470020000C004854470020D4
:103300000008004800040048001000485BB2A27D9D
:1033100043EA82135BB2E27D43EAC213B370BDE8B5
:10332000F08700BFBFF34F8F0549CA6802F4E0621F
:10333000044B1343CB60BFF34F8F00BFFDE700BFCB
:1033400000ED00E00400FA0510B5094C00228021D0
:10335000204606F0ECFC0A2005F046F80122802108
:10336000204606F0E4FC4FF4FA7005F03DF810BD7D
:103370000008004880B110B4044651B900205DF83F
:10338000044B7047E25C504001339BB28B42F9D34F
:10339000F5E700231846F9E700207047F0B589B03B
:1033A00000230193182202A94FF4805001F060FF1E
:1033B0009DF80850AB1EDBB2142B00F29A80294610
:1033C00002A8FFF7D7FF044608AB2B4413F8183CBC
:1033D00083426FD0824B834A92E8030018601971D0
:1033E0000521814A1170814AD17093E80300506031
:1033F00011727F4808F0E0FD04220DEB02014FF44A
:10340000005001F035FF9DF80430552B00F0858009
:10341000784B2C221A7101225A71774B03221A70B1
:103420000723764A1370764A1371734B19787548DF
:1034300008F026FD714B1978734808F021FD734D93
:10344000042229464FF4804001F012FF2B78AA2B6A
:1034500003D16B78552B00F095806C4B32229A701B
:103460006B4808F0A9FD694B987802F07FFC694D24
:10347000272229464FF4405001F0FAFE6D78242DA2
:1034800000F29480A91C6348FFF774FF0446614B67
:103490001B78552B05D1AB1C5E4AD35CA34200F0D0
:1034A00087805D495D4808F0EBFC5D4B24221A7073
:1034B00009B0F0BD4A4E002333607360B360F3601F
:1034C00033616A1E0DF10901304608F0C3FC6A1E23
:1034D000454B1A70454FFD703046FCF779FE0246A9
:1034E0003146381D08F0B6FC31464E4808F0C8FC9D
:1034F00082E73B4B3B4A92E80300186019710521B3
:10350000394A1170394AD17093E803005060117242
:10351000454808F051FD00246EE7032101A8FFF79C
:1035200029FF04469DF8073083420DD0314B2C22F1
:103530001A7101225A71304B70221A7007232F4AD8
:1035400013702F4A137170E79DF8052002EB820378
:1035500003EB83039B0027490B71642303FB02F3F6
:103560001B124B71244B1A709DF80630244A1371BC
:10357000072B02D9134608221A71214B1A791F4BC7
:103580001A7052E703212846FFF7F4FE0446EB7851
:10359000834206D01D4B32229A70244808F00CFD5D
:1035A00061E7A978224808F06BFC5CE700256EE72C
:1035B0001B4B1D702A461F49174808F04BFC1E483C
:1035C00008F05EFC0024164B1B78A3427FF670AF18
:1035D000114B185D08F06CFC0134E4B2F3E700BF56
:1035E000FC4400203CD50008364B0020EC4800206D
:1035F00044D50008E4480020334B0020374B00201E
:103600000449002094D50008B0D500084C4B002098
:1036100018D600080C4900201045002040D60008AC
:10362000444B00202CD500086CD50008F4D50008C8
:10363000C8D500080E4900203CD600082DE9F0410D
:10364000C0B004460D461646FF220021684608F029
:103650000FFC0CB1FF2D05D9284808F011FC40B033
:10366000BDE8F08132462946204601F039FD044686
:1036700085B22A4631460DF1070008F0EBFBC52361
:103680008DF80030AA278DF801700B348DF80240B8
:1036900005F10B0633128DF8033003238DF8043047
:1036A00010238DF805308DF80630E91D00240DF843
:1036B000014005F108030DF8034005F1090889B23E
:1036C0006846FFF757FE0DF808000A350DF805703B
:1036D0006FF07F43B2B26946094808F068FA0948BA
:1036E00008F0CEFB06E01DF80410074808F0C8FB00
:1036F0000134E4B2A542F6DAB1E700BF64D60008AF
:103700002450002050D600085CD6000870B5002870
:103710007CD015460646002A78D0002976D003785A
:103720003D4A137043785370C178837803EB0123CB
:103730009BB25380394A1278934262D1364B1A8831
:1037400045F2CA539A4257D10724162C06D8315D48
:10375000334808F095FB0134E4B2F6E70A2008F09C
:10376000A7FB32792C4B1A71B179727902EB0122E5
:10377000DA805988721812F8040C83F80D0112F8D7
:10378000030C83F80E0112F8020C83F80F0112F8F3
:10379000012C83F810212A460B39F01D01F0DEFCC4
:1037A00084B221461F4808F06BFB1CB91E4808F084
:1037B00067FB2FE01D4808F063FB0026B3B2A3426D
:1037C00006D2A95D1A4808F05BFB0136F6B2F5E7B0
:1037D0002B78114803726B784372AB788372EB7865
:1037E000C3726B792A7902EB032292B28281A91DFE
:1037F0000E3008F02FFB0DE00E4808F0DDFB002432
:1038000008E00D4808F0D8FB002403E00B4808F05E
:1038100037FB0024E0B270BD504B00204A4B002023
:1038200070D6000874D6000888D6000898D600081C
:10383000A8D60008B0D60008BCD60008D0D600082C
:103840002DE9F04107460D461646814808F018FB61
:103850000024AC4206D2395D7E4808F011FB0134E9
:10386000E4B2F6E7002F00F0E780002D00F0E480DE
:10387000002E00F0E180784B1B7803F0FF08D3B9ED
:103880003C78042C02D17B78FC2B04D0734808F0E0
:1038900093FB0324D4E0FB7804339D4203D07048AB
:1038A00008F08AFBCCE0BA786E4B1A706E4808F0CC
:1038B00083FB4446C4E0684B1B78DBB2012B04D089
:1038C0006A4808F0DDFA0024BAE0694808F0D8FA3E
:1038D000ACB2291F89B23846FFF74CFD804601463D
:1038E000644808F0CDFA324629463846FFF70EFF05
:1038F000002800F0A880604B1A8845F2CA539A420B
:1039000040F095805C4B59888C4204D05B4808F0AD
:1039100053FB042494E05A4808F0B2FA564B197944
:10392000032904D0574808F047FB052488E056488F
:1039300008F0A6FA504BD98841F21003994204D0FE
:10394000524808F039FB07247AE0514808F098FA09
:10395000494B197A012904D04E4808F02DFB082460
:103960006EE04D4808F08CFA434B9C7A012C04D051
:103970004A4808F021FB0A2462E02146484808F042
:103980007FFA3D4DE97A474808F07AFAEB7A013B35
:10399000182B5AD8DFE803F00D360D36360D0D33EF
:1039A0000D310D2D0D0D0D330D0D590D2F0D2F5901
:1039B00036000025304EB1893B4808F061FA2946AF
:1039C0003A4808F05DFAB389AB422BD196F80F3133
:1039D000434523D196F81031AA2B1AD196F80D3110
:1039E00013B196F80E317BB9314808F0E5FA00249E
:1039F00026E00225DEE70325DCE70525DAE71E4B96
:103A00009D89D7E70125D5E72A4808F0D5FA0E2485
:103A100016E0294808F0D0FA0D2411E0274808F0F4
:103A2000CBFA0DE0264808F0C7FA0C2408E0254838
:103A300008F0C2FA032403E0234808F0BDFA042486
:103A40002046BDE8F0810F24FAE70B24F8E700BF19
:103A5000DCD60008ECD60008354B002020D7000843
:103A600008D70008344B0020F4D600088CD9000891
:103A70003CD7000850D70008504B00205CD9000804
:103A80005CD700083CD900087CD7000820D9000882
:103A9000A0D7000804D90008C4D70008E8D8000857
:103AA000E8D700080CD800082CD8000850D8000827
:103AB00064D800087CD8000894D80008B4D800085E
:103AC000CCD8000874D90008A4D9000810B58CB06F
:103AD00000210191252202A808F0CAF92E4B19787D
:103AE00017292BD801F00703CA082C48825C42FA38
:103AF00003F313F0010F0DD10023294A1370294A53
:103B00001380294B01221A70234A13780133137052
:103B10000CB010BD0131254808F0B2F901224FF474
:103B2000FA711D4B1878FEF703FD1D4B01221A7028
:103B300000231C4A13801C4A1370E5E700211A4B2E
:103B40001970174B1970174B1980134B19700123FB
:103B50008DF80430164A12788DF805208DF806107D
:103B60008DF807108DF8083017228DF809208DF890
:103B70000A308DF80B108DF80C100E4C40222046A8
:103B800008F076F92246092101A8FFF757FD0A48F7
:103B900008F012FABCE700BF3A4B0020E0470020D3
:103BA000484B0020464B00203B4B0020C0D900086A
:103BB0003C4B00208C470020D8D9000810B50B4C96
:103BC000AA23237055236370A07003212046FFF7BA
:103BD000D1FBE0704FF4804001F0A8FB04222146A5
:103BE0004FF4804001F072FB10BD00BF4C4B002031
:103BF0002DE9F04192B0A64C40220021204608F069
:103C000037F92246A34B1978A348FFF719FE04465B
:103C1000002840F0B686A14B1B78002B40F0AA800C
:103C20009F4B1B78073B112B00F29F80DFE803F0CE
:103C3000099D259D449D9D9D9D9D9D9D9D9D9D9D19
:103C40009D660023974A1370974A1370974A138012
:103C5000974A1370904B1B793BB9964808F0ACF922
:103C6000954B02221A7000F091BE934B00221A70FD
:103C7000924808F0A1F900F089BE0023894A137028
:103C8000894A1370894A1380894A1370824B1B79C1
:103C900053B98B4808F090F9874B03221A70844B74
:103CA00000221A7000F072BE834B00221A70854801
:103CB00008F082F900F06ABE00237A4A13707A4A4B
:103CC00013707A4A13807A4A1370734B1B796BB95D
:103CD0007D4808F071F97D4808F06EF9764B0422B2
:103CE0001A70734B00221A7000F050BE724B002203
:103CF0001A70774808F060F900F048BE0023694A5E
:103D00001370694A1370694A1380694A1370624BD1
:103D10001B7913BB6F4808F04FF96C4808F04CF959
:103D20005D49CA786C4800F8012B053108F092F81B
:103D30000024614B1C705E4B1C70684D0122802179
:103D4000284605F0F4FF22462021284605F0EFFF23
:103D5000524B01221A7000F019BE574B00221A7004
:103D60005F4808F029F900F011BE5E4808F088F8B5
:103D700000F00CBE494B1D78EDB2012D40F0FD85E1
:103D80000021594B1960029103910491059106910C
:103D900007910891222209A808F06AF8534BDB7AB0
:103DA000013B182B00F2F285DFE813F01900400008
:103DB000AC00D4000601420167018E01E0018202DD
:103DC0008402D7021F0342038403EE036004B60497
:103DD000F005EB04F404AA05D505F005B702FEF7DB
:103DE0009BFD434C01232370404A527A62700021AC
:103DF000A170E170237163710423A371E1713D4BE4
:103E00001A7822725A7862729B78A372E172204DFE
:103E10004022284608F02CF82A460C212046FFF7BD
:103E20000DFC354808F0C8F800F0B0BD184B9B7980
:103E3000182B20D92E4BFA229A700022DA701A72AF
:103E40002B4C01232370294A527A6270237102227B
:103E50006271A3710021E1710D4D4022284608F0E6
:103E600007F82A4609212046FFF7E8FB234808F017
:103E7000A3F800F08BBD013BDCB22046FEF766FCE8
:103E80001B4B00229A70DA701D4A125D1A72D7E736
:103E90008C4700204A4B0020344A0020354B00203C
:103EA000344B0020424B0020384B0020404B002078
:103EB0003E4B0020E8D90008434B0020FCD9000805
:103EC00010DA000828DA000840DA000854DA00089E
:103ED0006CDA000880DA0008CC470020001800489F
:103EE00094DA000884D4000848470020504B002092
:103EF000E447002050470020ACDA0008C4DA00088C
:103F000074470020FFF71EF8B94C01232370B94A0B
:103F1000527A62700021A170E170237103236371F2
:103F20000423A371E171B44B1A7822725A78627239
:103F30009B78A372E172B14D4022284607F098FFAA
:103F40002A460C212046FFF779FBAD4808F034F8EB
:103F500000F01CBDA94B9B79182B20D9A44BFA2249
:103F60009A700022DA701A72A14C01232370A14AC0
:103F7000527A6270237104226271A3710021E1718F
:103F80009E4D4022284607F073FF2A46092120460D
:103F9000FFF754FB9B4808F00FF800F0F7BC013B1B
:103FA000DCB22046FEF74CFE914B00229A70DA708C
:103FB000954A125D1A72D7E78D4B012119708D4A0F
:103FC000527A5A7000229A70DA701971052058716D
:103FD0009971DA711A72894B9A798C4B1A701B7825
:103FE00023B18A4B1B78DBB2182B10D980480123F0
:103FF0000372824A0921FFF721FB402200217F48FA
:1040000007F036FF824807F0D7FF00F0BFBC7B4ABD
:1040100009217748FFF712FB7C4A1378013BDBB29A
:104020001370107801224FF4FA71FEF781FAE4E779
:104030006F4C012323706F4A527A62700026A6707B
:10404000E6702371062363710D23A371E671714B32
:1040500004F108050FCB07C52B70684D402231468F
:10406000284607F005FF2A4615212046FFF7E6FA05
:10407000694807F0A1FF00F089BC5D4C0123237063
:104080005C4A527A62700025A570E570237107239F
:104090006371624B1E78A671E5713246604904F186
:1040A000080007F0D7FE554F40222946384607F052
:1040B000DFFE3A4606F108012046FFF7BFFA5948ED
:1040C00007F07AFF00F062BC4C4B1C79631EDBB238
:1040D000132B29D9464B01221A72454C0125257014
:1040E000444B5B7A63700021A170E1702571082355
:1040F0006371A571E171414E4022304607F0B8FE70
:10410000324609212046FFF799FA474807F054FF45
:10411000642004F069F92A462021444805F007FE8E
:1041200085F31388FFF7FEF8224641490DF1090097
:1041300007F090FE0134E4B28DF80840214602A851
:10414000FFF718F912AB1C4404F8400C4FF48050F0
:1041500001F0ECF89DF80820013202A94FF48050DC
:1041600001F0B4F8224B00221A72B6E7314C01225A
:104170001146204605F0DBFD052004F035F9042149
:10418000204605F0CDFD01282AD02B4B4FF461725B
:104190001A8000220121274805F0C9FD144C012393
:1041A0002370144A527A62700021A170E170237169
:1041B000092363710223A371E1711F4B1B882372D2
:1041C0001B0A63720D4D4022284607F051FE2A4615
:1041D0000A212046FFF732FA184807F0EDFED5E332
:1041E000FDF700FB144A13884A331380D1E700BF60
:1041F000E4470020504B0020444700208C4700201B
:10420000DCDA0008F8DA0008544700206C47002088
:1042100014DB0008344500202CDB0008364B00205E
:10422000FC44002040DB000850DB00080018004878
:1042300092470020000400483047002060DB00085F
:10424000BB4B195DBB4807F01BFE0134E4B20A2CDE
:10425000F6D9B94807F0B0FEB54DAA79B74B9A71B7
:10426000EA795A712A7A1A716A7ADA70AA7A9A7095
:104270001868596801F074F9B14C01232370B14AF0
:10428000527A62700021A170E17023710A2262717A
:10429000A371E17121724022284607F0E9FD2A4608
:1042A00009212046FFF7CAF9A74807F085FE6DE30C
:1042B0000624CCE790238DF80430012201A92820A0
:1042C00001F06EF8A14D284601F092F89C4C0123B4
:1042D00023709C4A527A62700021A170E1702371B0
:1042E0000B2363710523A371E171AB7923726B79A1
:1042F00063722B79A372EB78E372AB7823738C4DE6
:104300004022284607F0B4FD2A460D212046FFF73B
:1043100095F98F4807F050FE38E3854DAA798D4B0B
:104320001A70874C01232370864A527A62700021EA
:10433000A170E170237119226271A371E171217280
:104340004022284607F094FD2A4609212046FFF71F
:1043500075F9814807F030FE18E300250195744F88
:10436000BA797E4B1A70FB797D490B7055218DF817
:1043700004108DF805208DF80630032101A8FEF702
:10438000F9FF8DF807004FF4005000F0CFFF042232
:104390000DEB02014FF4005000F098FF684C01262D
:1043A0002670684B5B7A6370A570E57026710C23EC
:1043B0006371A671E571257240222946384607F0DF
:1043C00057FD3A4609212046FFF738F9654807F0BE
:1043D000F3FD642004F008F832462021624805F01D
:1043E000A6FC86F31388FEF79DFF554C012323702E
:1043F000544A527A62700021A170E17023710D233A
:1044000063710223A371E171544B1B782372544BE7
:104410001B786372464D4022284607F029FD2A4644
:104420000A212046FFF70AF9504807F0C5FDADE222
:10443000362005F0C3FE0A2C12D821464C4807F05E
:104440001FFD01F095FB4B4B1B7833B94FF4FA700D
:1044500003F0CAFF0134E4B2EDE7464B00221A70C4
:10446000362005F09DFE364C01232370354A527AE2
:1044700062700025A570E57023710E23637102231D
:10448000A371E5713C4E338823721B0A63720A20C4
:1044900003F0AAFF264F40222946384607F0E8FCE1
:1044A0003A460A212046FFF7C9F83188334807F019
:1044B000E7FC6BE2362005F081FE0A2D12D8294672
:1044C0002B4807F0DDFC01F053FB2A4B1B7833B976
:1044D0004FF4FA7003F088FF0135EDB2EDE7254B9C
:1044E00000221A70362005F05BFE154C0123237064
:1044F000144A527A62700021A170E17023710F2377
:1045000063710223A371E1711D4D2B8823721B0A75
:104510006372074E4022304607F0AAFC32460A2159
:104520002046FFF78BF82988164807F0A9FC2DE2F2
:104530008C47002070D6000874DB00081853002058
:10454000E4470020504B002088DB0008F452002094
:1045500098DB000842450020A8DB0008334B002010
:10456000374B0020C0DB000800180048D8DB0008EB
:10457000F0DB00083D4B0020684C002004DC000804
:10458000664C002018DC0008BB4B5A791E7906EBFC
:104590000226B6B2731E9BB2232B1FD9B74BF6224D
:1045A0009A700022DA70B54C01232370B44A527A13
:1045B0006270237110226271A3710021E171217276
:1045C000AD4D4022284607F053FC2A4609212046DB
:1045D000FFF734F8AB4807F0EFFCD7E1F7B2AA4B8E
:1045E0001F703246A949AA4807F034FCA94807F0D1
:1045F00047FC254605E0A64B585D07F059FC013500
:10460000EDB2A14B1B78AB42F5D8A34807F0D4FC20
:10461000DFF8888232469D4908F1020007F01AFC53
:10462000552388F8003088F80170B51CA9B24046BF
:10463000FEF7A0FE08F805004FF4405000F076FEAB
:10464000F21C92B241464FF4405000F03FFE06E0AB
:10465000924B195D924807F013FC0134E4B2A54275
:10466000F6DA864B00229A70DA709CE7272208A9B6
:104670004FF4405000F0FCFD9DF821502946894838
:1046800007F0FEFB242D38D8A91C08A8FEF772FEFF
:104690009DF82030552B06D1AB1C12AA134413F8F9
:1046A000283C834222D00B2279497F4807F0E0FB67
:1046B0000B25724C01232370714A527A62700021DB
:1046C000A170E170237111236371A571E1716A4ECC
:1046D0004022304607F0CCFB324605F10801204667
:1046E000FEF7ACFF714807F067FC4FE12A460DF179
:1046F00022016D4807F0AEFBDBE7654C6A4B94E89E
:10470000070003C323F8022B120C1A7021466848D5
:1047100007F0B6FB0B25CCE7664C01224FF4007185
:10472000204605F004FB052003F05EFEFDF75AF875
:10473000614D6988614807F0A3FB00224FF40071C6
:10474000204605F0F4FA4D4C012323704C4A527A6E
:1047500062700021A170E170237112226271A37155
:10476000E1716B882372444D4022284607F080FB9C
:104770002A4609212046FEF761FF514807F01CFC3C
:1047800004E101234F4A13704F4A13704F4807F05A
:1047900013FCFBE0384B9C79DD7921464C4807F04F
:1047A0006FFB29464B4807F06BFB344B0121197016
:1047B000334A527A5A7000229A70DA7019711521B0
:1047C000597108219971DA71002C43D0204601F00B
:1047D000CDFAE0B9404807F053FB404801F0FEFA3B
:1047E000C8B93F4807F04CFB3E4EB1783E4807F051
:1047F00047FBB378A34212D0204B01221A72012D3D
:1048000014D01E4B0022C3F80920DA6025E0374897
:1048100007F036FBE1E7364807F032FBE4E72046D5
:10482000FFF7CCF9154B00221A72E8E701F022FBE2
:104830003049B1F90020114B5A7212129A72B1F933
:104840000220DA7212121A73B1F904205A7312128A
:104850009A7302E0284807F0AFFB074C4022002182
:10486000204607F005FB224610210448FEF7E6FE2D
:10487000224807F0A1FB89E08C470020E447002094
:10488000504B002030DC0008444B002092470020B1
:10489000104500203CD6000870DD00080C490020BF
:1048A00028DC00083CDC0008EC47002060DC000845
:1048B0004CDC000800140048304700206CDC000885
:1048C00080DC0008394B00202B47002094DC0008D6
:1048D000A0DC0008B4DC0008CCDC00084E4B002053
:1048E00000DD00084C4B002034DD0008E8DC000847
:1048F0001CDD0008045300204CDD000860DD0008CA
:10490000334B1D781DB3334C01232370324A527A46
:1049100062700021A170E17023711623637111236D
:10492000A371264606F8071F2C4F4022384607F091
:104930009FFA2A462A49304607F08CFA3A4619214E
:104940002046FEF77BFE274807F036FB1EE0264890
:1049500007F032FB1AE0254A204B33F8061F9B78FC
:1049600011809370224B01221A70224B00221A7080
:10497000194B5A7A204B1A7008E0204807F080FA49
:1049800004E01F4B1B78DBB2012B09D000231D4A2A
:1049900013701D4A13701D4A137012B0BDE8F081E8
:1049A0000C4D2B7000216970FF22AA70EB702971E9
:1049B00068710A4C4022204607F05AFA2246062126
:1049C0002846FEF73BFE124807F0F6FADEE700BF86
:1049D000CC470020E4470020504B00208C470020AB
:1049E000CD47002074DD00088CDD0008E047002082
:1049F0003B4B00203A4B00203C4B00208CD9000858
:104A0000354B0020344B00204A4B0020494B0020FE
:104A1000A0DD000810B5854B1B78012B0AD0844B14
:104A20001B78013B032B44D8DFE813F00B00510047
:104A30009300D4007E4B01221A707C4B00221A7026
:104A4000EDE77C4A13780133DBB213707A4A002118
:104A50001180032B2ED8794B01221A70FC225A7038
:104A600007229A700C4606E0744B195D744807F0F3
:104A700007FA0134E4B2714BDA78D31CA342F3DABB
:104A80006E4C40F6FF73043221466E4807F08FF8F3
:104A9000002323606360A360E36023616361644A71
:104AA00013700123684A1370684A1370684807F04E
:104AB000E7F910BD0023644A13705D4A13705D4A24
:104AC0001370624A1370634807F076FAF1E7594AA7
:104AD00013780133DBB21370574A00211180032B86
:104AE0002AD85D4B01221A70FC225A7009229A7052
:104AF0000222DA700C4606E0574B195D504807F069
:104B0000BFF90134E4B2544BDA78D31CA342F3DA90
:104B100040F6FF73043250494A4807F048F8444BC6
:104B200000221A70484B01221A70484B02221A7058
:104B30004A4807F0A5F9BCE70023434A13703C4AF2
:104B400013703C4A1370414A1370454807F034FA19
:104B5000AFE7384A13780133DBB21370364A0021CD
:104B60001180032B29D83F4B01221A70FC21597068
:104B70000B219970DA70002406E03A4B195D304839
:104B800007F07EF90134E4B2364BDA78D31CA34245
:104B9000F3DA40F6FF73043232492A4807F007F887
:104BA000234B00221A70284B01221A70274B032234
:104BB0001A702D4807F064F97BE70023224A13702E
:104BC0001B4A13701B4A1370204A1370274807F0C2
:104BD000F3F96EE7174A13780133DBB21370164A04
:104BE00000211180032B13D840F6FF7305222049C2
:104BF000144806F0DCFF0E4B00221A701A4807F02A
:104C00003FF9114B01221A70104B04221A7050E721
:104C100000230D4A1370064A1370064A13700B4A9C
:104C20001370144807F0C8F943E700BF434500205C
:104C3000434B00203E4B0020404B0020EC4800201E
:104C4000ECD6000824500020424B0020384B0020B6
:104C5000B4DD0008C4DD0008E4480020F0DD0008F1
:104C600004DE00080449002034DE000844DE0008A9
:104C7000ACDE000870DE000870B483B000220EE0E5
:104C8000930011F8224000F822405C1C0D5D055590
:104C90009C1C0D5D05550333CC5CC4540132032AC2
:104CA000EED904231DE099001A1F10F822409DF848
:104CB00004506C4000F8234000EB820254789DF8C9
:104CC00005604D1C7440445594789DF806608D1C19
:104CD00074404455D2789DF80740033162404254F5
:104CE00001332B2B24D85A1E10F822108DF80410F3
:104CF00000EB820255788DF8055094788DF80640C7
:104D0000D2788DF8072013F0030FCCD10A4E755DD1
:104D1000345D8DF80540B25C8DF80620725C8DF82C
:104D200007209A0805498A5C6A408DF80420BAE792
:104D300003B070BC704700BFC0DF0008B4DE0008DD
:104D4000F0B400250FE005EB800403EB8404145D50
:104D500001EB8506F75C7C40F4540133DBB2032B96
:104D6000F1D90135EDB2032D01D80023F7E7F0BCEE
:104D7000704700000022032A18D80023032B12D802
:104D800030B400EB83018C5C094D2C5D8C540133F5
:104D9000DBB2032BF5D90132D2B2032A01D80023AA
:104DA000F7E730BC70470132D2B2E4E7704700BF8A
:104DB000C0DF0008437842794270427A4271427BF8
:104DC000427243738378827A827083728379827BA2
:104DD00082718373C378C27BC270C27AC273C27994
:104DE000C272C3717047C3095A00134403EBC30373
:104DF00083EA4000C0B270472DE9F04781460026A3
:104E00002EE019F826A009EB8604607880EA0A00F3
:104E1000A378E57843405D40FFF7E5FF68408AEA04
:104E2000000009F82600677894F8028087EA0800F5
:104E3000FFF7D9FF684047406770E77888EA0700C6
:104E4000FFF7D1FF684088EA000884F8028087EA0B
:104E50000A00FFF7C8FF45407D40E5700136F6B215
:104E6000032ECED9BDE8F0872DE9F04F8BB000902E
:104E70004FF00009A2E0009B13F829B003EB89076B
:104E800097F801A097F80280FC785846FFF7ABFF2F
:104E90000190FFF7A8FF0290FFF7A5FF089050468A
:104EA000FFF7A1FF0390FFF79EFF0490FFF79BFF22
:104EB00006464046FFF797FF0590FFF794FF0690E0
:104EC000FFF791FF05462046FFF78DFF0990FFF79A
:104ED0008AFF0790FFF787FF019B02994B40DBB2E7
:104EE00008994B40DBB2039A82EA0A02D2B27240BE
:104EF000D2B25340069A82EA0802D2B26A40D2B2D3
:104F0000534080EA0402D2B25340009A02F829309A
:104F100081EA0B03DAB2039B9C46049B8CEA0303F1
:104F2000DBB27340DBB25340059A82EA0802D2B288
:104F30006A40D2B25340079A6240D2B24240D2B2E3
:104F400053407B70029A82EA0B03DBB24B40DBB228
:104F500086EA0A02D2B25340059A9446069A9646C9
:104F60008CEA0202D2B26A40D2B25340099A54404B
:104F7000E4B24440E4B26340BB70019B83EA0B0B94
:104F80005FFA8BFB81EA0B0B5FFA8BFB049B83EAD6
:104F90000A0A5FFA8AFA86EA0A06F6B28BEA060677
:104FA00085EA0805EDB275401346079A5340DBB217
:104FB0005840C0B26840F87009F10109B9F1030F17
:104FC0007FF759AF0BB0BDE8F08F00000022032A35
:104FD00018D80023032B12D830B400EB83018C5C6B
:104FE000094D2C5D8C540133DBB2032BF5D9013212
:104FF000D2B2032A01D80023F7E730BC7047013250
:10500000D2B2E4E7704700BFC0DE0008437B427ABB
:105010004273427942724278427143708378827A55
:10502000827083728379827B82718373C378C27941
:10503000C270C27AC271C27BC272C373704770B54C
:1050400005460E460A4601460020FFF779FE012478
:1050500009E02846FFF7D0FE324629462046FFF7F2
:105060006FFE0134E4B22846FFF784FE2846FFF7BE
:10507000A1FE0A2CEDD1324629460A20FFF760FE38
:1050800070BD70B505460E460A4601460A20FFF778
:1050900057FE092404E02846FFF7E6FE013CE4B28F
:1050A0002846FFF7B3FF2846FFF790FF3246294610
:1050B0002046FFF745FE002CEDD170BD08B5FFF787
:1050C000DBFD08BD08B50B4601461846FFF7B7FFE4
:1050D00008BD08B50B4601461846FFF7D2FF08BDCC
:1050E0002DE9F84F00AFA0B30C469146834621B995
:1050F00088464046BD46BDE8F88F0D46002917DBBF
:105100002D1101354FEA0518C246ADEB080D6E466C
:105110005FFA88F1E3B2C91A4246C9B2684606F09E
:10512000A7FE22465946684606F094FE002408E091
:1051300001F10F05E4E706EB04110748FFF7C2FF92
:105140000134A542F7DC52463146484606F082FE5D
:10515000CFE74FF00008CCE734520020F8B528B371
:105160000C4617460646F9B111F00F0F20D1002565
:1051700008E0B5EB231F0BDA06EB05110E48FFF72D
:10518000A8FF01352346002CF3DA04F10F03F0E702
:10519000631EF15C0F2901D9102C0BDD641A224625
:1051A0003146384606F056FE2046F8BD0024FBE79F
:1051B0000024F9E70024F7E73452002000B585B059
:1051C0000023ADF80C30ADF808308DF80C004FF42A
:1051D0007A730093012302AA03A9044805F040F959
:1051E0009DF8080005B05DF804FB00BF404F0020AB
:1051F00008B5FFF7E3FF08BD08B5FF20FFF7DEFFA6
:1052000008BD000038B50B4D00224FF480512846F0
:1052100004F08DFD0520FFF7D1FFFF20FFF7CEFF43
:10522000044601224FF48051284604F080FD2046B8
:1052300038BD00BF0010004810B5084C00224FF4E4
:105240008051204604F073FD0620FFF7D1FF0122B4
:105250004FF48051204604F06AFD10BD0010004854
:1052600008B5FFF7CFFF10F0010FFAD108BD00001D
:1052700070B504460E46154600224FF48051124880
:1052800004F055FD0B20FFF7B3FFC4F30740FFF711
:10529000AFFFC4F30720FFF7ABFFE0B2FFF7A8FFB3
:1052A000A520FFF7A5FF6B1E9CB22DB1FFF7A4FF51
:1052B00006F8010B2546F6E701224FF4805102481B
:1052C00004F035FD70BD00BF0010004870B5044605
:1052D0000E461546FFF7B0FF00224FF480511248EA
:1052E00004F025FD0220FFF783FFC4F30740FFF71A
:1052F0007FFFC4F30720FFF77BFFE0B2FFF778FFE3
:105300000024A3B2AB4205D2305DFFF757FF013452
:10531000E4B2F6E701224FF48051034804F007FDA0
:10532000FFF79EFF70BD00BF0010004838B504466F
:10533000FFF782FF0E4D00224FF48051284604F003
:10534000F6FC2020FFF754FFC4F30740FFF750FF9F
:10535000C4F30720FFF74CFFE0B2FFF749FF01223B
:105360004FF48051284604F0E2FCFFF779FF38BD86
:10537000001000480023092804D90133DBB20A38A1
:10538000C0B2F8E71B01DBB218437047030903EB17
:10539000830300F00F0000EB4300C0B27047000031
:1053A00000B585B04FF47A73029301920091012306
:1053B0000246A221034803F0F5F900B1012005B02F
:1053C0005DF804FBF44E002000B585B04FF47A730D
:1053D00002930192009101230246A321034803F0A6
:1053E000B5FA00B1012005B05DF804FBF44E0020D1
:1053F0002DE9F04786B0044600238DF817308DF86C
:1054000016304E4B93E803000490ADF814100122BF
:105410000DF116012C20FFF7D7FF20B101263046F1
:1054200006B0BDE8F08701220DF117012820FFF733
:10543000CBFF9DF81710424806F022FD0A2002F02B
:10544000D3FF062204A90020FFF7BEFF06469DF801
:10545000113003F07F0398468DF811309DF812301B
:1054600003F07F031F468DF812309DF81000FFF700
:105470008DFF85B205EB85056D00ADB2258008F086
:105480007F00FFF783FF8146A07007F07F00FFF7E2
:105490007DFF8246E0709DF81300FFF777FF80469E
:1054A00020719DF81400FFF771FF074660719DF8A9
:1054B0001500FFF76BFF0146A0710295CDF804902F
:1054C000CDF800A043463A461E4806F0D9FCA37822
:1054D0003B2B14D8E3783B2B19D82379632B1BD8AB
:1054E0006379632B1DD8A379632B1FD8022E0AD0B2
:1054F0000EBB9DF81630A52B91D002268FE71248DF
:1055000006F05AFD0226114806F056FD87E71048BE
:1055100006F052FD0226F6E70E4806F04DFD022683
:10552000F1E70D4806F048FD0226ECE70B4806F0CF
:1055300043FD0226E7E7012671E700BF10D300080C
:10554000C0E00008D8E00008F4E000086CE10008C2
:1055500008E100081CE1000834E100084CE1000803
:1055600030B587B06B4683E8030000238DF8173011
:1055700001238DF81630A4238DF815304B4806F022
:105580001BFD9DF802303B2B32D89DF803203B2AAF
:1055900032D89DF80410632932D89DF8050063289D
:1055A00032D89DF80650632D32D8A5248DF81440CA
:1055B00000248DF80C408DF80F108DF810008DF838
:1055C000115003F07F038DF80D3002F07F028DF84B
:1055D0000E20374806F054FC052C22D806AB234495
:1055E00013F80C1C334806F04BFC0134E4B2F3E72B
:1055F000314806F0E1FC0EE0304806F0DDFC0AE040
:105600002F4806F0D9FC06E02E4806F0D5FC02E053
:105610002D4806F0D1FC2D4806F0CEFC022007B044
:1056200030BD0A2006F044FC0024052C0AD806AB45
:105630001D1915F80C0CFFF79DFE05F80C0C013434
:10564000E4B2F2E7012205A92C20FFF7A9FE08B178
:105650000120E4E701220DF116012E20FFF7A0FE44
:1056600008B10120DBE701220DF115012F20FFF722
:1056700097FE08B10120D2E701220DF11701282081
:10568000FFF78EFE08B10120C9E7062203A9FFF744
:1056900087FE00238DF8163001220DF116012E2011
:1056A000FFF77EFE0028BAD00120B8E7A0E100088D
:1056B000B4E1000870D60008F4E0000808E1000832
:1056C0001CE1000834E100084CE100086CE100082E
:1056D00010B582B0044600238DF8073082238DF880
:1056E000063001220DF106012720FFF759FE10B107
:1056F000012002B010BD00238DF8063001220DF10B
:1057000007012920FFF760FED0B9012C11D0022C2F
:1057100018D19DF8073063F077038DF80630012229
:105720000DF106012920FFF73BFE0028E1D0012002
:10573000DFE79DF8073063F06F038DF80630EEE782
:105740000120D6E70220D4E700B583B001226946E4
:105750002720FFF739FE70B99DF80030822B0BD05F
:1057600082238DF80430012201A92720FFF718FEBB
:1057700010B1012000E0012003B05DF804FB00003F
:1057800010B582B000238DF807300E4806F014FCE7
:1057900001220DF107012B20FFF702FE022002F08B
:1057A00023FE01220DF107012B20FFF70DFE044619
:1057B0009DF80710044806F063FB04B1012420465D
:1057C00002B010BD38E2000898D3000830B583B0AD
:1057D00003463A4A92E8030002AA02E90300012BB9
:1057E00005D0022B0FD00125284603B030BD344828
:1057F00006F0E2FB082269461046FFF7E5FD054684
:1058000068B10125F0E72F4806F0D6FB02220DF122
:1058100001010D20FFF7D8FD054600284BD19DF86A
:1058200000009DF8014004F07F0400F07F00FFF7C6
:10583000ADFD8DF800002046FFF7A8FD8DF80100B2
:105840009DF80200FFF7A2FD8DF802009DF803000D
:10585000FFF79CFD8DF803009DF80400FFF796FD0F
:105860008DF804009DF80500FFF790FD8DF8050008
:105870009DF80600FFF78AFD8DF806009DF80700E9
:10588000FFF784FD8DF807000F4806F0F9FA0024B1
:1058900008E002AB234413F8081C0C4806F0F0FAA9
:1058A0000134E4B2072CF4D9094806F0E9FA002DD6
:1058B0009AD0012598E7012596E700BF18D3000884
:1058C0004CE200085CE200086CE2000870D60008B8
:1058D0007CE20008F0B587B0064602AB83E806001C
:1058E00010238DF8173000238DF8163001220DF1AA
:1058F00017012820FFF754FD04465D4806F05CFBC5
:10590000002C40F0B0809DF80A003B2834D89DF868
:105910000B503B2D3AD89DF80C30632B3BD89DF8AB
:105920000D20632A3CD89DF80E1063293DD8022C27
:1059300026D000278DF815708DF812308DF81320C1
:105940008DF8141000F07F078DF8107005F07F07B8
:105950008DF8117001900095464806F091FA042CDC
:1059600028D806AB1D1915F8080CFFF703FD05F83C
:10597000080C0134E4B2F2E73F4806F01DFB0224B4
:105980003E4806F019FB204607B0F0BD3C4806F043
:1059900013FB0224F4E73B4806F00EFB0224EFE77A
:1059A000394806F009FB0224EAE7384806F004FB10
:1059B0000224E5E73046FFF78BFE04460028E2D1DB
:1059C00001220DF115011020FFF7FEFC044600280E
:1059D0004BD1012E10D0022E29D001220DF116013B
:1059E0002820FFF7F1FC9DF81610294806F048FA28
:1059F0000120FFF7EBFEC6E7264806F0DDFA9DF82A
:105A0000153043F003038DF8153001220DF1150117
:105A10001020FFF7C5FC08B10124B4E7022204A955
:105A20000820FFF7BDFC0028D7D00124ABE71A48B7
:105A300006F0C2FA9DF8153043F020038DF81530BA
:105A400001220DF115011020FFF7AAFC08B1012475
:105A500099E701220DF111010D20FFF7A1FC0028AB
:105A6000BBD001248FE701248DE701248BE700BF21
:105A700080E2000898E20008F4E0000804E2000870
:105A800008E100081CE1000834E100084CE10008CE
:105A9000C0E00008A8E20008B8E2000800B587B03E
:105AA0000023059310220192012202920393049392
:105AB00001A9034804F04AF807B05DF804FB00BFF1
:105AC0000018004800B587B0002304930593102206
:105AD00001920293039301A9024804F037F807B03A
