:020000040800F2
:1000000000800120C1B90008D91F0008DB1F0008CB
:10001000DD1F0008DF1F0008E11F000800000000CE
:10002000000000000000000000000000E31F0008C6
:10003000E51F000800000000E71F0008E91F000896
:1000400011BA000811BA000811BA000811BA000864
:1000500011BA000811BA0008F11F000811BA00080F
:10006000FB1F00080520000811BA000811BA00089B
:1000700011BA000811BA000811BA000811BA000834
:1000800011BA000811BA000811BA000811BA000824
:1000900011BA000811BA000811BA0008212000089E
:1000A00011BA000811BA000811BA000811BA000804
:1000B00011BA000811BA000811BA000811BA0008F4
:1000C00011BA000811BA000811BA000811BA0008E4
:1000D00011BA000811BA000811BA000811BA0008D4
:1000E00011BA000811BA000811BA000811BA0008C4
:1000F00011BA000811BA000811BA000811BA0008B4
:1001000011BA000811BA00083520000811BA000819
:1001100011BA0008452000085520000811BA00084F
:1001200011BA000811BA000811BA000811BA000883
:1001300011BA000811BA000811BA000811BA000873
:1001400011BA000811BA000811BA00080000000036
:1001500011BA000811200008E520000811BA0008B3
:1001600011BA000811BA000811BA000811BA000843
:1001700011BA000811BA00080000000000000000D9
:0801800011BA000811BA0008D1
:1001900010B5054C237833B9044B13B10448AFF3C1
:1001A00000800123237010BDF846002000000000ED
:1001B0001CCF000808B5034B1BB103490348AFF33C
:1001C000008008BD00000000FC4600201CCF000895
:1001D000034613F8012B002AFBD1181A0138704787
:1001E00001F0FF01102A2BDB10F0070F08D010F8E8
:1001F000013B013A8B422DD010F0070F42B3F6D1EC
:10020000F0B441EA012141EA014122F007047FF004
:1002100000070023F0E80256083C85EA010586EA5B
:10022000010685FA47F5A3FA87F586FA47F6A5FA97
:1002300087F68EB9EED1F0BC01F0FF0102F00702A3
:1002400032B110F8013B013A83EA010313B1F8D14E
:100250000020704701387047002D06BF354603382F
:10026000073815F0010F07D1013015F4807F02BF68
:10027000013015F4C03F0130F0BC0138704700BFB9
:1002800081F0004102E000BF83F0004330B54FEA47
:1002900041044FEA430594EA050F08BF90EA020FB4
:1002A0001FBF54EA000C55EA020C7FEA645C7FEA47
:1002B000655C00F0E2804FEA5454D4EB5555B8BF6A
:1002C0006D420CDD2C4480EA020281EA030382EADB
:1002D000000083EA010180EA020281EA0303362D6D
:1002E00088BF30BD11F0004F4FEA01314FF4801C40
:1002F0004CEA113102D0404261EB410113F0004F52
:100300004FEA03334CEA133302D0524263EB430308
:1003100094EA050F00F0A780A4F10104D5F1200EA6
:100320000DDB02FA0EFC22FA05F2801841F1000101
:1003300003FA0EF2801843FA05F359410EE0A5F1D5
:1003400020050EF1200E012A03FA0EFC28BF4CF006
:10035000020C43FA05F3C01851EBE37101F00045BC
:1003600007D54FF0000EDCF1000C7EEB00006EEBC9
:100370000101B1F5801F1BD3B1F5001F0CD3490853
:100380005FEA30004FEA3C0C04F101044FEA4452AA
:1003900012F5800F80F09A80BCF1004F08BF5FEA31
:1003A000500C50F1000041EB045141EA050130BD11
:1003B0005FEA4C0C404141EB0101013C28BFB1F523
:1003C000801FE9D291F0000F04BF01460020B1FA6E
:1003D00081F308BF2033A3F10B03B3F120020CDA41
:1003E0000C3208DD02F1140CC2F10C0201FA0CF01F
:1003F00021FA02F10CE002F11402D8BFC2F1200C84
:1004000001FA02F120FA0CFCDCBF41EA0C01904039
:10041000E41AA2BF01EB0451294330BD6FEA040482
:100420001F3C1CDA0C340EDC04F11404C4F120026D
:1004300020FA04F001FA02F340EA030021FA04F37F
:1004400045EA030130BDC4F10C04C4F1200220FAD6
:1004500002F001FA04F340EA0300294630BD21FA14
:1004600004F0294630BD94F0000F83F4801306BFDA
:1004700081F480110134013D4EE77FEA645C18BFCE
:100480007FEA655C29D094EA050F08BF90EA020F65
:1004900005D054EA000C04BF1946104630BD91EA5D
:1004A000030F1EBF0021002030BD5FEA545C05D160
:1004B0004000494128BF41F0004130BD14F580049F
:1004C0003CBF01F5801130BD01F0004545F0FE4113
:1004D00041F470014FF0000030BD7FEA645C1ABF48
:1004E000194610467FEA655C1CBF0B46024650EA7F
:1004F000013406BF52EA033591EA030F41F40021AB
:1005000030BD00BF90F0000F04BF0021704730B530
:100510004FF4806404F132044FF000054FF0000105
:1005200050E700BF90F0000F04BF0021704730B5C6
:100530004FF4806404F1320410F0004548BF40429B
:100540004FF000013EE700BF42004FEAE2014FEAF0
:1005500031014FEA02701FBF12F07F4393F07F4FCB
:1005600081F06051704732F07F4208BF704793F0CE
:100570007F4F04BF41F40021704730B54FF46074E1
:1005800001F0004521F000411CE700BF50EA0102E4
:1005900008BF704730B54FF000050AE050EA01028D
:1005A00008BF704730B511F0004502D5404261EBFD
:1005B00041014FF4806404F132045FEA915C3FF43E
:1005C000D8AE4FF003025FEADC0C18BF03325FEADB
:1005D000DC0C18BF033202EBDC02C2F1200300FA8C
:1005E00003FC20FA02F001FA03FE40EA0E0021FAB1
:1005F00002F11444BDE600BF70B54FF0FF0C4CF49F
:10060000E06C1CEA11541DBF1CEA135594EA0C0F50
:1006100095EA0C0F00F0DEF82C4481EA030621EA8B
:100620004C5123EA4C5350EA013518BF52EA0335C6
:1006300041F4801143F4801338D0A0FB02CE4FF078
:100640000005E1FB02E506F00042E0FB03E54FF0A8
:100650000006E1FB03569CF0000F18BF4EF0010EA0
:10066000A4F1FF04B6F5007F64F5407404D25FEA9C
:100670004E0E6D4146EB060642EAC62141EA55514F
:100680004FEAC52040EA5E504FEACE2EB4F1FD0C91
:1006900088BFBCF5E06F1ED8BEF1004F08BF5FEA0F
:1006A000500E50F1000041EB045170BD06F00046C1
:1006B00046EA010140EA020081EA0301B4EB5C046E
:1006C000C2BFD4EB0C0541EA045170BD41F4801166
:1006D0004FF0000E013C00F3AB8014F1360FDEBF8B
:1006E000002001F0004170BDC4F10004203C35DA67
:1006F0000C341BDC04F11404C4F1200500FA05F3EA
:1007000020FA04F001FA05F240EA020001F000428A
:1007100021F0004110EBD37021FA04F642EB060100
:100720005EEA430E08BF20EAD37070BDC4F10C042A
:10073000C4F1200500FA04F320FA05F001FA04F2EE
:1007400040EA020001F0004110EBD37041F10001DA
:100750005EEA430E08BF20EAD37070BDC4F12005E5
:1007600000FA05F24EEA020E20FA04F301FA05F24D
:1007700043EA020321FA04F001F0004121FA04F2F5
:1007800020EA020000EBD3705EEA430E08BF20EAC5
:10079000D37070BD94F0000F0FD101F000464000FF
:1007A00041EB010111F4801F08BF013CF7D041EA81
:1007B000060195F0000F18BF704703F00046520085
:1007C00043EB030313F4801F08BF013DF7D043EA56
:1007D0000603704794EA0C0F0CEA135518BF95EA0C
:1007E0000C0F0CD050EA410618BF52EA4306D1D193
:1007F00081EA030101F000414FF0000070BD50EAB2
:10080000410606BF1046194652EA430619D094EA3B
:100810000C0F02D150EA013613D195EA0C0F05D125
:1008200052EA03361CBF104619460AD181EA030179
:1008300001F0004141F0FE4141F470014FF0000031
:1008400070BD41F0FE4141F4780170BD70B54FF0CC
:10085000FF0C4CF4E06C1CEA11541DBF1CEA13554C
:1008600094EA0C0F95EA0C0F00F0A7F8A4EB05042E
:1008700081EA030E52EA03354FEA013100F0888025
:100880004FEA03334FF0805545EA131343EA1263EE
:100890004FEA022245EA111545EA10654FEA0026A3
:1008A0000EF000419D4208BF964244F1FD0404F55C
:1008B000407402D25B084FEA3202B61A65EB0305B8
:1008C0005B084FEA32024FF480104FF4002CB6EB75
:1008D000020E75EB030E22BFB61A754640EA0C00F5
:1008E0005B084FEA3202B6EB020E75EB030E22BF35
:1008F000B61A754640EA5C005B084FEA3202B6EB76
:10090000020E75EB030E22BFB61A754640EA9C0034
:100910005B084FEA3202B6EB020E75EB030E22BF04
:10092000B61A754640EADC0055EA060E18D04FEAC2
:10093000051545EA16754FEA06164FEAC30343EA62
:1009400052734FEAC2025FEA1C1CC0D111F4801F2F
:100950000BD141EA00014FF000004FF0004CB6E728
:1009600011F4801F04BF01430020B4F1FD0C88BFC7
:10097000BCF5E06F3FF6AFAEB5EB030C04BFB6EBD2
:10098000020C5FEA500C50F1000041EB045170BDC5
:100990000EF0004E4EEA113114EB5C04C2BFD4EBF2
:1009A0000C0541EA045170BD41F480114FF0000E76
:1009B000013C90E645EA060E8DE60CEA135594EAF2
:1009C0000C0F08BF95EA0C0F3FF43BAF94EA0C0FF5
:1009D0000AD150EA01347FF434AF95EA0C0F7FF46A
:1009E00025AF104619462CE795EA0C0F06D152EABE
:1009F00003353FF4FDAE1046194622E750EA4106A2
:100A000018BF52EA43067FF4C5AE50EA41047FF4B2
:100A10000DAF52EA43057FF4EBAE12E74FF0FF3C17
:100A200006E000BF4FF0010C02E000BF4FF0010CE8
:100A30004DF804CD4FEA410C7FEA6C5C4FEA430C61
:100A400018BF7FEA6C5C1BD001B050EA410C0CBFB0
:100A500052EA430C91EA030F02BF90EA020F002012
:100A6000704710F1000F91EA030F58BF994208BF79
:100A700090422CBFD8176FEAE37040F00100704736
:100A80004FEA410C7FEA6C5C02D150EA013C07D18D
:100A90004FEA430C7FEA6C5CD6D152EA033CD3D0D8
:100AA0005DF8040B704700BF8446104662468C46D2
:100AB0001946634600E000BF01B5FFF7B7FF002805
:100AC00048BF10F1000F01BD4DF808EDFFF7F4FF2E
:100AD0000CBF012000205DF808FB00BF4DF808EDB9
:100AE000FFF7EAFF34BF012000205DF808FB00BFDC
:100AF0004DF808EDFFF7E0FF94BF012000205DF8FE
:100B000008FB00BF4DF808EDFFF7CEFF94BF0120B2
:100B100000205DF808FB00BF4DF808EDFFF7C4FFAB
:100B200034BF012000205DF808FB00BF4FEA4102FE
:100B300012F5001215D211D56FF47873B3EB62522F
:100B400012D94FEAC12343F0004343EA505311F056
:100B5000004F23FA02F018BF404270474FF00000E8
:100B6000704750EA013005D111F0004008BF6FF026
:100B7000004070474FF00000704700BF4FEA41024D
:100B8000B2F1E04324BFB3F5001CDCF1FE5C0DD9EB
:100B900001F0004C4FEAC0024CEA5070B2F1004F35
:100BA00040EB830008BF20F00100704711F0804F38
:100BB00021D113F13872BCBF01F00040704741F4FD
:100BC00080114FEA5252C2F11802C2F1200C10FA01
:100BD0000CF320FA02F018BF40F001004FEAC123E5
:100BE0004FEAD32303FA0CFC40EA0C0023FA02F389
:100BF0004FEA4303CCE77FEA625307D150EA01335F
:100C00001EBF4FF0FE4040F44000704701F000402E
:100C100040F0FE4040F40000704700BF53B94AB9AD
:100C2000002908BF00281CBF4FF0FF314FF0FF30F4
:100C300000F06EB9ADF1080C6DE904CE00F006F8D5
:100C4000DDF804E0DDE9022304B070472DE9F04748
:100C5000089D04468C46002B40F083808A4217464C
:100C600047D9B2FA82F242B1C2F1200024FA00F070
:100C70009140974040EA010C94404FEA1748230CFA
:100C8000BCFBF8F61FFA87FE08FB16C143EA0143D6
:100C900006FB0EF1994209D9FB1806F1FF3080F0EE
:100CA0001981994240F21681023E3B445B1AA4B27C
:100CB000B3FBF8F008FB103344EA034400FB0EFEDC
:100CC000A64509D93C1900F1FF3380F00581A645FE
:100CD00040F2028102383C4440EA0640A4EB0E0494
:100CE00000261DB1D4400023C5E900433146BDE8CC
:100CF000F08702B9FFDEB2FA82F2002A50D1CB1B94
:100D00004FEA174E1FFA87F80126B3FBFEFC210CB1
:100D10000EFB1C3341EA034108FB0CF38B4207D95D
:100D200079180CF1FF3002D28B4200F2E980844640
:100D3000C91AA3B2B1FBFEF00EFB101143EA014445
:100D400008FB00F8A04507D93C1900F1FF3302D297
:100D5000A04500F2D9801846A4EB080440EA0C40F4
:100D6000BFE78B4209D9002D00F0B1800026C5E90C
:100D7000000130463146BDE8F087B3FA83F6002E15
:100D80004AD18B4202D3824200F2B880841A61EBCE
:100D9000030101208C46002DA8D0C5E9004CA5E731
:100DA000C2F1200320FA03F6974001FA02F04FEA5D
:100DB000174ED9403043030CB1FBFEF61FFA87F8FB
:100DC0000EFB161143EA014306FB08F1994204FAAF
:100DD00002F409D9FB1806F1FF3C80F08D8099429E
:100DE00040F28A80023E3B445B1A81B2B3FBFEF0C4
:100DF0000EFB103341EA034100FB08F38B4207D995
:100E0000791800F1FF3C73D28B4271D90238394412
:100E1000CB1A40EA064678E7C6F1200C03FA06F43E
:100E200022FA0CF31C4320FA0CF701FA06F34FEAFE
:100E3000144E21FA0CF11F433B0CB1FBFEF91FFAD3
:100E400084F80EFB191143EA014109FB08FA8A45AF
:100E500002FA06F200FA06F308D9611809F1FF3028
:100E600048D28A4546D9A9F102092144A1EB0A01D9
:100E7000BFB2B1FBFEF00EFB101147EA014700FBC9
:100E800008F8B84507D9E71900F1FF312ED2B84567
:100E90002CD90238274440EA0940A7EB0807A0FBF9
:100EA00002894F45C64649461AD317D05DB1B3EB08
:100EB0000E0267EB010707FA0CFCF2404CEA020253
:100EC000F740C5E9002700263146BDE8F0872E46E9
:100ED00028460BE70646E9E61846FDE64345E5D217
:100EE000B8EB020E69EB04010138DFE70846D2E7F0
:100EF00060468DE78146B9E7664675E730464AE7C2
:100F0000ACF1020C394413E702383C4424E700BF3B
:100F1000704700BF10B514464FF6FF7392B20248F7
:100F20000AF057FC204610BD1051002010B5304B80
:100F30001B78DBB2012B13D02E4B1B784BB12E4B01
:100F40001B78012B3FD02D4B01221A70294B002218
:100F50001A702B4B1B78012B3BD005F0F1FD10BD17
:100F6000284C217828480AF09DFD2378032B0CD9C2
:100F7000264B1B78012B18D000231D4A1370214AE1
:100F8000137023480AF02AFED6E70024184B1C7081
:100F900020480AF023FE05F09FFD01231E4A13702E
:100FA0001E4A1480144A1370C6E7184B00221A70A8
:100FB0006FF07F431B221A491A480AF00AFC1A48AC
:100FC0000AF00CFED8E700230B4A1370174A13707F
:100FD000B9E7174B1B78002BBFD105F053FD05F087
:100FE000DDFF074B00221A70124B1A785A70B4E7D3
:100FF0001B4700201A47002014470020544E0020B1
:101000005C4E00201547002048CF0008214B0020EF
:1010100084CF000860CF0008164700201847002042
:10102000B8CF00081050002070CF0008624E00209A
:101030005D4E0020604E00202DE9F043B9B0202223
:10104000002129A80AF026FD002422942394249448
:10105000259426948422214601A80AF01BFD01262E
:1010600027964FF480332893022531950327329732
:1010700033960A2334934FF00708CDF8D480369581
:101080004FF00809CDF8DC9027A807F045FC0F23A6
:1010900022932397249425942694294622A807F086
:1010A00025FF44F21613019310941194139417948E
:1010B0004FF080531E9302970396CDF81090CDF811
:1010C0001480069507954FF08073089301A808F0E7
:1010D00043F94FF4007008F0DFFD39B0BDE8F0834C
:1010E00008B506F071FFFFF7A7FF00F0D1F800F098
:1010F0003DFB00F063FA00F05BFB00F0BBFB00F08F
:10110000A3FC00F04DFE00F067FE00F081FE00F051
:101110000FFC4849484803F0B3FE04F01FFA00F002
:1011200035FA464B0ECB022004F034FA444804F062
:1011300041F804F0E9FD434809F076FA424809F025
:1011400073FA424CFF224249204609F07FFE226892
:10115000136843F01003136001223E493E4809F032
:101160000BFE02F07BF802F04FF83C480AF09AFCC4
:101170003AE000243A4B1C703A4D287822464FF44E
:10118000FA7101F035F92C7001224FF48061364874
:1011900008F0DFFB00F0C4FC2BE0344C01222021DE
:1011A000204608F0D6FB322006F030FF0022202136
:1011B000204608F0CEFB00232D4A13702D4A136001
:1011C0001BE002F05DFC1CE002F0C8FB1DE02A4BB6
:1011D00001221A7029480AF001FD184B0ECB02209B
:1011E00004F0D8F9FFF7A2FE1D4B1B78DBB2012BF0
:1011F000BFD01F4B1B78002BCFD1214B1B78012B6D
:10120000DFD0204B1B78002BDED103F0E5FA1E4B1C
:101210001B78002BE6D004F067FA1B4B00221A70F3
:10122000074C204603F0C6FFE278044BDB789A4275
:10123000D3D1CCE748DA000820520020000000207B
:10124000704E0020904F0020D04F00201050002002
:101250001C490020544C0020905000209CCF0008D6
:101260002447002054470020000800480018004888
:1012700020470020304700201B470020B0CF000847
:101280002F4B0020234B00205847002070470000C0
:101290002DE9F04F8FB0002409940A940B940C941C
:1012A0000D94B14BDA6C42F01002DA64DA6C02F0A1
:1012B00010020192019ADA6C42F02002DA64DA6CD0
:1012C00002F020020292029ADA6C42F08002DA64A2
:1012D000DA6C02F080020392039ADA6C42F00402A4
:1012E000DA64DA6C02F004020492049ADA6C42F0D6
:1012F0000102DA64DA6C02F001020592059ADA6CF6
:1013000042F00202DA64DA6C02F002020692069AF5
:10131000DA6C42F04002DA64DA6C02F040020792C2
:10132000079ADA6C42F00802DA64DB6C03F0080317
:101330000893089B08F0F8FC8C4F224641F22401E8
:10134000384608F006FB012240F64141384608F0D5
:1013500000FBDFF82CB2224641F60321584608F084
:10136000F8FA224652214FF0904008F0F2FA01229A
:1013700080214FF0904008F0ECFA7D4E22464FF469
:101380000361304608F0E5FA01228021304608F07A
:10139000E0FADFF8F09122464EF22121484608F0AB
:1013A000D8FA01224FF48E51484608F0D2FA22466C
:1013B0004FF4BE416F4808F0CCFA01224AF2030113
:1013C0006C4808F0C6FADFF8C0812246E0214046AA
:1013D00008F0BFFA01220821404608F0BAFA41F6A7
:1013E0006543099301250A950B940C9409A9384685
:1013F00008F0BEF94FF0080ACDF824A05E4B0A931E
:101400000B9409A9384608F0B3F94FF464730993B3
:101410000A940B9409A9384608F0AAF941F6032367
:1014200009930A950B940C9409A9584608F0A0F961
:1014300004270997504B0A930B9409A9304608F0EA
:1014400097F9202309934C4B0A930B9409A94FF069
:10145000904008F08DF90995484B0A930B9409A91F
:101460004FF0904008F084F9D22309930A950B9429
:101470000C9409A94FF0904008F07AF94FF44B63AF
:1014800009930A950B940C9409A9304608F070F959
:101490004FF2E13309930A950B940C9409A948463D
:1014A00008F066F909970A940B9409A9484608F0D0
:1014B0005FF94FF4604309930A940B9409A95846C5
:1014C00008F056F940F2171309930A940B9409A9EE
:1014D000404608F04DF94FF6037309930A950B94B3
:1014E0000C9409A9234808F043F9E82309930A95C5
:1014F0000B940C9409A9404608F03AF94FF4507344
:1015000009930A940B9409A9304608F031F94FF475
:10151000E06309930A940B9409A94FF0904008F0F6
:1015200027F922462146062008F018FC062008F07C
:1015300049FC22462146504608F010FC504608F06F
:1015400041FC22462146092008F008FC092008F049
:1015500039FC22462146172008F000FC172008F02D
:1015600031FC0FB0BDE8F08F0010024000100048C1
:1015700000080048000C0048000011100000311065
:1015800000140048000400480018004800B587B067
:101590000023049305934FF480730193054B02934A
:1015A0000123039301A9044808F0E2F807B05DF8AD
:1015B00004FB00BF000021100014004800B587B0F4
:1015C000002300930193029303930493059320480F
:1015D000204A026043608360C36003610422426169
:1015E000037643760222C261012280F82020426203
:1015F0008362C36280F83030436380F8383005F08E
:101600006BFFD8B9144B0093062301930023029378
:101610007F22039204220492059369460C4806F047
:10162000E3F870B90D4B00930C2301936946084809
:1016300006F0DAF840B907B05DF804FBFFF726FEC4
:10164000E0E7FFF723FEEDE7FFF720FEF3E700BF3B
:101650007C4E0020000204504000201900209036EB
:1016600000B589B000230393049305930693079371
:101670000268144B9A4202D009B05DF804FB03F1F2
:101680007043A3F5F933DA6C42F40052DA64DA6C91
:1016900002F400520192019ADA6C42F02002DA64FC
:1016A000DB6C03F020030293029B4FF481630393EE
:1016B0000B2304930023059303A9034808F058F86B
:1016C000DAE700BF000204500014004830B583B0D0
:1016D00000230193012417E01E4D284606F06CFB01
:1016E0004FF6FF71284605F0F7FF284606F078F818
:1016F00082B202AB03EB440323F8042C21461648C4
:101700000AF0D0F90134E4B2022CE5D9BDF8063074
:1017100040F2BC7202FB03F2120B104B1A8010490C
:10172000A1FB02314909642303FB112292B20D4847
:101730000AF0B8F9BDF8081001EB4111090B074B8D
:10174000598009480AF0AEF9024806F0F4FB03B0EC
:1017500030BD00BF7C4E0020F0CF00081C470020A9
:101760001F85EB5104D0000820D0000800B583B0DD
:101770000E4B9A6C42F001029A649A6C02F00102DC
:101780000092009A9A6C42F002029A649B6C03F0F9
:1017900002030193019B00221146452008F0DEFA66
:1017A000452008F00FFB03B05DF804FB0010024079
:1017B00008B51248124B0360124B4360002383604C
:1017C0000122C260036143618361C361036206F069
:1017D0009DFD50B90021094806F0A2FF40B9002143
:1017E000064806F0CBFF30B908BDFFF74FFDF1E723
:1017F000FFF74CFDF3E7FFF749FDF5E7E04E00206A
:10180000005C0040EB9B900010B588B00023039370
:1018100004930593069307930268134B9A4201D0F1
:1018200008B010BD114CE36C43F00403E364E36CB7
:1018300003F004030193019B0323039312220492F8
:101840000122059206930423079303A9084807F091
:101850008FFFA36D43F40003A365A36D03F400039E
:101860000293029BDCE700BF005C004000100240D6
:101870000008004808B51048104B03604FF482730D
:101880004360002383604FF4E062C2600361436100
:101890004FF4007282611822C26103624362836264
:1018A0000722C26203630823436308F093FB00B975
:1018B00008BDFFF7EBFCFBE72C4F00200030014098
:1018C00000B589B00023039304930593069307930F
:1018D0000268154B9A4202D009B05DF804FB03F58B
:1018E00060431A6E42F480521A661A6E02F48052F5
:1018F0000192019ADA6C42F01002DA64DB6C03F0B8
:1019000010030293029B4FF460430393022304935A
:1019100000230593032306930523079303A9034894
:1019200007F026FFD8E700BF003001400010004854
:1019300000B585B000230193029303930E480F4A2C
:10194000026009224260836041F28732C260836193
:1019500008F0B6FF50B900230193039301A906488C
:1019600009F0BEF928B905B05DF804FBFFF78EFC5D
:10197000F1E7FFF78BFCF6E7D04F002000100040A6
:1019800000B583B00368174A934205D0164A9342C4
:1019900015D003B05DF804FB144B9A6D42F00802B9
:1019A0009A659B6D03F008030093009B002211468B
:1019B000322008F0D3F9322008F004FAE9E70B4BA3
:1019C0009A6D42F010029A659B6D03F0100301932B
:1019D000019B00221146362008F0C0F9362008F09D
:1019E000F1F9D6E7000C0040001000400010024062
:1019F00000B587B0002301930293039304930593EA
:101A000002680F4B9A4202D007B05DF804FB03F561
:101A10000133DA6C42F02002DA64DB6C03F020035D
:101A20000093009B802301930223029300220392E0
:101A30000492059301A9034807F09AFEE4E700BF6A
:101A4000000C00400014004800B58FB000230A933A
:101A50000B930C930D9307930893099300930193B1
:101A6000029303930493059306932148214A02604D
:101A70000422426083607C22C2600361836108F0BB
:101A80001FFF30BB4FF480530A930AA9184809F08E
:101A900037F808BB164808F02DFF00BB002307935A
:101AA000099307A9124809F01BF9D8B960230093DC
:101AB0003C230193002302930493042269460C48BB
:101AC00008F078FF88B90A48FFF792FF0FB05DF879
:101AD00004FBFFF7DBFBD5E7FFF7D8FBDAE7FFF7FF
:101AE000D5FBDBE7FFF7D2FBE0E7FFF7CFFBEAE749
:101AF000904F0020000C004030B589B005460C46E0
:101B00006023019302920023039305930A4601A9DF
:101B100008F050FF2146284609F072F809B030BDA0
:101B200008B5044B2C221A600421034809F068F818
:101B300008BD00BF04450020904F002008B50421D7
:101B4000014809F08FF808BD904F002010B50446F9
:101B50000268714B1B689A4205D022686F4B1B6864
:101B60009A422ED010BD6E4B1A6842F69D139A42CF
:101B70001BD86B4B1B686B4AD35C8033C3EB43129F
:101B800003EB82031A46002B0CDB1212664B1A6021
:101B900063490B6801330B60D2B204215E48FFF742
:101BA000ABFFDAE703F1FF02EFE7FFF7C7FF002221
:101BB0004FF480615D4807F0CCFE594B2C221A602F
:101BC000CBE75B4A138801339BB21380C72B62D8E3
:101BD000584B1B78DBB2012B6FD0574B1B78DBB215
:101BE000012B00F08780554B1B789BB1544A13881A
:101BF0009BB201339BB2138013889BB2B3F5C87FAD
:101C000008D300234D4A13704D4A13804D4B1A7868
:101C10004D4B1A704D4B1B7883B14D4A13880133DD
:101C20009BB21380B3F57A7F08D34A4B1A784A4B9C
:101C30001A700023464A1380444A1370474B1B789E
:101C400073B1474A138801339BB21380C72B07D95E
:101C50000023424A1370424A1380424B01221A70F9
:101C6000414B1B7873B1414A138801339BB21380F7
:101C7000B3F5FA6F06D3002313803B4A13703C4B35
:101C800001221A703B4B1B78002B3FF46BAF013BDA
:101C9000384A137066E7134600221A804FF48051C9
:101CA000354807F05BFE2021344807F057FE01223B
:101CB0003349344809F060F88AE7334A13889BB205
:101CC00001339BB21380314B1B889BB23049A1FB7F
:101CD0000313128892B2B2EB930FFFF47EAF00238E
:101CE000144A1370284A1380284A1380294B012272
:101CF0001A7072E7284B1A6801321A601A6848F69F
:101D00009F439A427FF66FAF234B00221A60234B0A
:101D100001221A7067E700BF904F0020D04F0020CB
:101D2000044500200C00002028470020000800483F
:101D3000224700205547002034470020284B002030
:101D4000264B0020204B0020294B00205A4E00201B
:101D5000584E0020554E0020544E00202E4B00209F
:101D60002C4B0020234B0020164700201847002052
:101D70001A4700205D4E002000140048000400486F
:101D8000544C002090500020264700205647002049
:101D9000CDCCCCCC24470020304700202047002069
:101DA00008B50B480B4B03604FF4165343600023F8
:101DB0008360C36003610C2242618361C36103627B
:101DC000436209F0A7FD00B908BDFFF75FFAFBE722
:101DD000905000200050004008B50B480B4B0360AA
:101DE0004FF4E133436000238360C36003610C223E
:101DF00042618361C3610362436209F08BFD00B9F4
:101E000008BDFFF743FAFBE71051002000440040F3
:101E100008B50B480B4B03604FF416534360002387
:101E20008360C36003610C22426183610362436289
:101E300009F070FD00B908BDFFF728FAFBE700BF05
:101E40001050002000800040F0B58DB000230793B3
:101E5000089309930A930B930368564A934208D058
:101E60000446554A934242D0544A934261D00DB041
:101E7000F0BD534B9A6D42F480129A659A6D02F44C
:101E800080120092009ADA6C42F00402DA64DA6C92
:101E900002F004020192019ADA6C42F00802DA645C
:101EA000DB6C03F008030293029B4FF4805307930B
:101EB000022708970126099603250A9508240B9402
:101EC00007A9404807F054FC042307930897099694
:101ED0000A950B9407A93C4807F04AFC00221146DA
:101EE000352007F03BFF352007F06CFFBFE7344B90
:101EF0009A6D42F400329A659A6D02F400320392B0
:101F0000039ADA6C42F00802DA64DB6C03F008032F
:101F10000493049B602307930223089300230993EF
:101F200003230A9307230B9307A9274807F020FCF4
:101F30009DE7234BDA6D42F00102DA65DA6D02F0BB
:101F400001020592059ADA6C42F00202DA64DB6C57
:101F500003F002030693069B4FF4406307930223AA
:101F600008930025099503230A9308230B9307A9D7
:101F7000164807F0FDFB1648164B03600423436028
:101F80008560C5608023036145618561C561056227
:101F900007F012FD58B90E4BE3669C620022114611
:101FA000462007F0DBFE462007F00CFF5FE7FFF757
:101FB0006DF9F0E700500040004400400080004010
:101FC0000010024000080048000C004800040048CF
:101FD000D8510020800402407047FEE7FEE7FEE78C
:101FE000FEE770477047704708B505F0FDFF08BD74
:101FF00008B5012007F0BAFC08BD08B5042007F0B9
:10200000B5FC08BD08B5082007F0B0FC08BD00000D
:1020100008B5024807F0D4FD08BD00BFD851002024
:1020200008B5202007F0A2FC4FF4807007F09EFC5A
:1020300008BD000008B5024808F011FB08BD00BF4C
:10204000904F002008B5024809F06AF808BD00BFAB
:102050009050002008B5024808F001FB08BD00BF01
:10206000D04F00200368DA6912F0100F2DD070B540
:102070000446164A934200D070BD10221A620368CB
:10208000DA699B8C124B1B685D6808F035FF114BB9
:102090001B7863B1104DFF2632460021284609F017
:1020A000F9FC32462946204608F0D0FEE4E7AAB201
:1020B000C2F1FF020849094809F0DEFCED43084B74
:1020C0001D70044B01221A70E4E770470080004045
:1020D000D85100202F4B00201C4900201C4A002012
:1020E000304B002008B5074B1B68DB6913F0100F5D
:1020F00003D1044809F014F808BD0248FFF7B2FF05
:10210000F7E700BF1050002082B00A4B1A6E42F071
:1021100001021A661A6E02F001020092009A9A6D8C
:1021200042F080529A659B6D03F080530193019BAE
:1021300002B070470010024010B50446012805D0D7
:10214000042C18D0B4F5807F19D010BD01214FF0B8
:10215000904007F0F7FB012806D00C4B01221A70C3
:102160000B4809F03BFDEBE7084B00221A700948C9
:1021700009F034FDE4E7084809F030FDE2E70748DC
:1021800009F02CFD064B01221A70DEE734470020CF
:1021900050D000083CD0000860D0000874D000087F
:1021A0005847002038B504460D46052818D90B2895
:1021B00003D80638C4B2022313E0112804D8A0F1D2
:1021C0000C03DCB201230CE0172804D8A0F11203A1
:1021D000DCB2022305E0804809F064FC0220F2E052
:1021E0000123052C00F2F080012D00F2E880052C7F
:1021F00000F2EF80DFE804F0032F5B738BB7012D53
:102200000AD01DBB012B19D000224FF48051734816
:1022100007F09FFB2846D6E0012B07D001224FF4A0
:1022200080516E4807F095FB2046CCE001224FF428
:1022300000616A4807F08DFB2046C4E000224FF49D
:102240000061664807F085FB2846BCE0644809F059
:1022500029FC2046B7E0012D0AD01DBB012B19D067
:1022600000224FF400615D4807F073FB2846AAE0A6
:10227000012B07D001224FF40061584807F069FB99
:102280000020A0E001224FF48061544807F061FB78
:10229000002098E000224FF48061504807F059FB7D
:1022A000284690E04E4809F0FDFB00208BE0012D10
:1022B00008D07DB900224FF40071484807F049FB6F
:1022C000284680E001224FF40071444807F041FBAA
:1022D000002078E0424809F0E5FB002073E0012D82
:1022E00008D07DB900224FF480713C4807F031FBE3
:1022F000284668E001224FF48071384807F029FB36
:10230000002060E0364809F0CDFB00205BE0012DA5
:102310000AD01DBB012B19D000224FF400413148D7
:1023200007F017FB28464EE0012B07D001224FF49F
:1023300000412C4807F00DFB002044E001224FF43F
:102340008041284807F005FB00203CE000224FF4C4
:102350008041244807F0FDFA284634E0204809F07F
:10236000A1FB00202FE0012D0AD01DBB012B19D0AD
:1023700000224FF480411B4807F0EBFA284622E088
:10238000012B07D001224FF48041164807F0E1FAF3
:10239000002018E001224FF40051124807F0D9FA4A
:1023A000002010E000224FF400510E4807F0D1FA4F
:1023B000284608E00A4809F075FB002003E00A48B7
:1023C00009F070FB012038BD084809F06BFB0220C2
:1023D000F9E70020F7E700BF88D00008000C0048AC
:1023E0009CD0000800040048ACD00008BCD0000815
:1023F00070B5544B1980544B1870172800F29D800B
:10240000054614464F4B1B889BB2002B00F095806D
:10241000012A00F28D8004D00646002C44D0002012
:102420008FE00126494B1E70002280214FF0904022
:1024300007F08FFA32464FF48041454807F089FA99
:10244000052D0CD90B2D19D9112D24D800220121CD
:102450003F4807F07EFAA5F10C06F6B206E000222E
:102460004FF400513A4807F074FA2E46052005F063
:10247000CDFD01212846FFF795FECEE700224FF45F
:102480000041334807F065FAAE1FF6B231463148D5
:1024900009F008FBEAE7002202212D4807F059FA6B
:1024A000A5F11206F6B2E1E700212846FFF77AFE11
:1024B000052E0BD90B2E1DD9112E22D9172E26D859
:1024C00001220221224807F044FA05E001224FF4DC
:1024D00000511F4807F03DFA012280214FF0904043
:1024E00007F037FA00224FF48041194807F031FA1B
:1024F000204626E001224FF40041154807F029FA52
:10250000EAE701221146124807F023FAE4E71248ED
:1025100009F0C8FA012280214FF0904007F019FA23
:1025200000224FF480410A4807F013FA022008E025
:102530000A4809F0B7FA012003E0094809F0B2FAA5
:10254000022070BD56470020544700205547002008
:10255000000C0048D0D00008E0D00008F4D00008FB
:1025600008D1000838B54B1EDBB2012B45D8054613
:102570000C4601290BD00020022C3FD13DB3012D88
:102580002BD0022D2ED0032D31D0FF2036E038B1D4
:1025900001280BD002280FD0032812D0FF20EBE730
:1025A0004FF40051164807F0CDF9E5E74FF400412C
:1025B000134807F0C7F9DFE70221124807F0C2F914
:1025C000DAE74FF48071104807F0BCF9D4E74FF414
:1025D00080410B4807F0B6F910E00121094807F0E7
:1025E000B1F90BE08021084807F0ACF906E04FF4A0
:1025F0000071054807F0A6F900E0FF2038BD00BFD4
:1026000000140048001800480010004838B504467F
:1026100001224FF400716C4807F09BF90022012160
:102620006A4807F096F9032C2BD9072C51D90B2CAB
:102630006DD90F2C40F28A80132C40F2A480172C05
:1026400000F2BE80604D00224FF48071284607F0F2
:1026500080F9322005F0DAFCA4F114000121C0B2A7
:10266000FFF780FFB0FA80F04009594B18550A2057
:1026700005F0CCFC01224FF48071284607F069F97F
:102680001BE0524D00224FF48061284607F061F9AB
:10269000322005F0BBFC01212046FFF763FFB0FAB2
:1026A00080F040094A4B18550A2005F0AFFC012282
:1026B0004FF48061284607F04CF900224FF4007176
:1026C000414807F046F901221146404807F041F918
:1026D00038BD3E4D00224FF40061284607F039F91D
:1026E000322005F093FC201F0121C0B2FFF73AFF12
:1026F000B0FA80F04009364B18550A2005F086FCE8
:1027000001224FF40061284607F023F9D5E72E4D4A
:1027100000224FF48051284607F01BF9322005F0C3
:1027200075FCA4F108000121C0B2FFF71BFFB0FA4D
:1027300080F04009264B18550A2005F067FC01225D
:102740004FF48051284607F004F9B6E71E4D0022E9
:102750004021284607F0FDF8322005F057FCA4F18F
:102760000C000121C0B2FFF7FDFEB0FA80F0400975
:10277000174B18550A2005F049FC01224021284634
:1027800007F0E7F899E7104D00228021284607F06E
:10279000E0F8322005F03AFCA4F110000121C0B2AB
:1027A000FFF7E0FEB0FA80F04009094B18550A2007
:1027B00005F02CFC01228021284607F0CAF87CE7AE
:1027C000044809F06FF978E7000400480010004859
:1027D0005C47002018D100082DE9F04F93B0C54C9C
:1027E00001224FF40071204607F0B3F8C24D0022D9
:1027F0000121284607F0ADF800224FF480612846F9
:1028000007F0A7F8322005F001FC01210020FFF7B6
:10281000A9FEB0FA80F35B09009301210846FFF797
:10282000A1FEB0FA80FB4FEA5B1B01210220FFF7FB
:1028300099FEB0FA80F25209019201210320FFF7BC
:1028400091FEB0FA80F1490902910A2005F0DEFB01
:1028500001224FF48061284607F07BF800224FF4F4
:102860000061284607F075F8322005F0CFFB012102
:102870000020FFF777FEB0FA80F0400903900121B5
:102880000846FFF76FFEB0FA80F67609049601213C
:102890000220FFF767FEB0FA80F77F090597012154
:1028A0000320FFF75FFEB0FA80F0400906900A208F
:1028B00005F0ACFB01224FF40061284607F049F80F
:1028C00000224FF48051204607F043F8322005F0F3
:1028D0009DFB01210020FFF745FEB0FA80F6760946
:1028E000079601210846FFF73DFEB0FA80F77F0901
:1028F000089701210220FFF735FEB0FA80FC604600
:102900004009099001210320FFF72CFEB0FA80FC5A
:10291000664676090A960A2005F078FB01224FF4F4
:102920008051204607F015F800224021204607F08C
:1029300010F8322005F06AFB01210020FFF712FE9B
:10294000B0FA80FA4FEA5A1A01210846FFF70AFE48
:10295000B0FA80FC67467F090B9701210220FFF740
:1029600001FEB0FA80FC614649090C910121032067
:10297000FFF7F8FDB0FA80FC604640090D900A2090
:1029800005F044FB01224021204606F0E2FF002230
:102990008021204606F0DDFF322005F037FB0121C3
:1029A0000020FFF7DFFDB0FA80FC664676090E9640
:1029B00001210846FFF7D6FDB0FA80FC67467F0983
:1029C0000F9701210220FFF7CDFDB0FA80FC604691
:1029D0004009109001210320FFF7C4FDB0FA80FCEC
:1029E0006646760911960A2005F010FB0122802127
:1029F000204606F0AEFF00224FF48071204606F01C
:102A0000A8FF322005F002FB01210020FFF7AAFDFC
:102A1000B0FA80F94FEA591901210846FFF7A2FDE3
:102A2000B0FA80F84FEA581801210220FFF79AFD0A
:102A3000B0FA80F77F0901210320FFF793FDB0FA78
:102A400080F676090A2005F0E1FA01224FF4807140
:102A5000204606F07EFF00224FF40071204606F06B
:102A600078FF01221146284606F073FF009B43EAD7
:102A70004B00019A40EA8200029940EAC100039BA0
:102A800040EA0310049B40EA4310059B40EA831090
:102A9000069B40EAC310194B1870079A089942EA3E
:102AA0004100099A40EA82000A9A40EAC20040EADC
:102AB0000A100B9A40EA42100C9940EA81100D9AD4
:102AC00040EAC21058700E9A0F9942EA4100109ADB
:102AD00040EA8200119A40EAC20040EA091949EA34
:102AE000481848EA871747EAC6169E7013B0BDE833
:102AF000F08F00BF00040048001000483847002055
:102B0000F8B5044601221021B84806F022FF012240
:102B10004FF48041B64806F01CFF01224FF40071CB
:102B2000B44806F016FF00220121B34806F011FF59
:102B3000032C41D9072C40F288800B2C40F2BA803C
:102B40000F2C40F2EC80132C40F21A81172C00F26B
:102B50004881A74D00220221284606F0FAFE0520F2
:102B600005F054FA01224FF48061284606F0F1FE88
:102B7000A04E00224FF48071304606F0EAFE3C2061
:102B800005F044FAA4F114000221C0B2FFF7EAFCF8
:102B90009A4B185501224FF48071304606F0D9FE49
:102BA00000224FF48061284606F0D3FE0122022164
:102BB000284606F0CEFE31E08D4D00224FF4005144
:102BC000284606F0C6FE052005F020FA01224FF443
:102BD0008051284606F0BDFE874E00224FF48061EA
:102BE000304606F0B6FE3C2005F010FA02212046E1
:102BF000FFF7B8FC814B185501224FF48061304635
:102C000006F0A7FE00224FF48051284606F0A1FEF0
:102C100001224FF40051284606F09BFE00221021AD
:102C2000724806F096FE00224FF48041704806F08C
:102C300090FE00224FF400716E4806F08AFE0122D9
:102C400011466D4806F085FEF8BD694D00224FF42F
:102C50000051284606F07DFE052005F0D7F9654EA7
:102C600001224FF40041304606F073FE624F00220D
:102C70004FF40061384606F06CFE3C2005F0C6F9C2
:102C8000201F0221C0B2FFF76DFC5C4B18550122DA
:102C90004FF40061384606F05CFE00224FF400411C
:102CA000304606F056FE01224FF40051284606F049
:102CB00050FEB3E74E4D00224FF40041284606F087
:102CC00048FE052005F0A2F901224FF48061284654
:102CD00006F03FFE474E00224FF48051304606F08A
:102CE00038FE3C2005F092F9A4F108000221C0B2A0
:102CF000FFF738FC414B185501224FF48051304604
:102D000006F027FE00224FF48061284606F021FEDF
:102D100001224FF40041284606F01BFE7EE7344DA9
:102D200000220121284606F014FE052005F06EF968
:102D300001224FF48051284606F00BFE2D4E002252
:102D40004021304606F005FE3C2005F05FF9A4F175
:102D50000C000221C0B2FFF705FC284B18550122D8
:102D60004021304606F0F5FD00224FF48051284600
:102D700006F0EFFD01221146284606F0EAFD4DE778
:102D80001B4E00220121304606F0E3FD052005F030
:102D90003DF9184D01224FF40041284606F0D9FDB7
:102DA00000228021284606F0D4FD3C2005F02EF9B3
:102DB000A4F110000221C0B2FFF7D4FB0F4B18554D
:102DC00001228021284606F0C4FD00224FF4004174
:102DD000284606F0BEFD01221146304606F0B9FD38
:102DE0001CE7074808F05EFE18E700BF000800482F
:102DF000000C004800040048001000483C47002038
:102E000028D100082DE9F047EA4E00253580B5703D
:102E1000DFF8ACA301221021504606F09AFDE64FE0
:102E200001224FF48041384606F093FDDFF8948389
:102E300001224FF40071404606F08BFDDFF88893C5
:102E40002A460121484606F084FD2A464FF40051E7
:102E5000384606F07EFD01224FF48051384606F0D8
:102E600078FD2A464FF48061484606F072FD3C200A
:102E700005F0CCF802212846FFF774FBCF4C2070F8
:102E800002210120FFF76EFB607002210846FFF768
:102E900069FBA07002210320FFF764FBE0700122B0
:102EA0004FF48061484606F054FD2A464FF48051A5
:102EB000384606F04EFD01224FF40041404606F030
:102EC00048FD2A464FF40061484606F042FD3C208A
:102ED00005F09CF802212846FFF744FB20710221EF
:102EE0000120FFF73FFB607102210846FFF73AFB24
:102EF000A07102210320FFF735FBE07101224FF49E
:102F00000061484606F025FD2A464FF40041404640
:102F100006F01FFD01224FF40051384606F019FD5E
:102F20002A464FF40041384606F013FD01224FF4C3
:102F30008061384606F00DFD2A464FF48051404628
:102F400006F007FD3C2005F061F802212846FFF756
:102F500009FB207202210120FFF704FB60720221AD
:102F60000846FFF7FFFAA07202210320FFF7FAFAE2
:102F7000E07201224FF48051404606F0EAFC2A46F6
:102F80004FF48061384606F0E4FC01224FF4004122
:102F9000384606F0DEFC2A460121384606F0D9FC08
:102FA00001224FF48051384606F0D3FC2A464021D6
:102FB000404606F0CEFC3C2005F028F802212846C9
:102FC000FFF7D0FA207302210120FFF7CBFA6073DC
:102FD00002210846FFF7C6FAA07302210320FFF77B
:102FE000C1FAE07301224021404606F0B2FC2A46B5
:102FF0004FF48051384606F0ACFC012211463846A9
:1030000006F0A7FC2A460121384606F0A2FC012260
:103010004FF40041404606F09CFC2A468021404681
:1030200006F097FC3C2004F0F1FF02212846FFF750
:1030300099FA207402210120FFF794FA60740221AA
:103040000846FFF78FFAA07402210320FFF78AFADF
:10305000E07401228021404606F07BFC2A464FF4B2
:103060000041404606F075FC01221146384606F044
:1030700070FC2A460221384606F06BFC01224FF410
:103080008061384606F065FC2A464FF48071404660
:1030900006F05FFC3C2004F0B9FF02212846FFF750
:1030A00061FA207502210120FFF75CFA60750221A8
:1030B0000846FFF757FAA07502210320FFF752FADE
:1030C000E07501224FF48071404606F042FC2A462A
:1030D0004FF48061384606F03CFC0122022138465C
:1030E00006F037FC2A461021504606F032FC2A46EC
:1030F0004FF48041384606F02CFC2A464FF400710C
:10310000404606F026FC01221146484606F021FC06
:1031100094F90030627843EA42035BB2A27843EA52
:1031200082035BB2E27843EAC2035BB2227943EAEC
:1031300002135BB2627943EA42135BB2A27943EABB
:1031400082135BB2E27943EAC213337094F9083018
:10315000627A43EA42035BB2A27A43EA82035BB239
:10316000E27A43EAC2035BB2227B43EA02135BB218
:10317000627B43EA42135BB2A27B43EA82135BB2F7
:10318000E27B43EAC213737094F91030627C43EA25
:1031900042035BB2A27C43EA82035BB2E27C43EA75
:1031A000C2035BB2227D43EA02135BB2627D43EA53
:1031B00042130BE02C470020000C00483C47002045
:1031C0000008004800040048001000485BB2A27DDF
:1031D00043EA82135BB2E27D43EAC213B370BDE8F7
:1031E000F08700BFBFF34F8F0549CA6802F4E06261
:1031F000044B1343CB60BFF34F8F00BFFDE700BF0D
:1032000000ED00E00400FA0510B5094C0022802111
:10321000204606F09EFB0A2004F0F8FE01228021E1
:10322000204606F096FB4FF4FA7004F0EFFE10BD56
:103230000008004880B110B4044651B900205DF880
:10324000044B7047E25C504001339BB28B42F9D390
:10325000F5E700231846F9E700207047F0B589B07C
:1032600000230193182202A94FF4805001F0E2FEDE
:103270009DF80850AB1EDBB2142B00F29A80294651
:1032800002A8FFF7D7FF044608AB2B4413F8183CFD
:1032900083426FD0824B834A92E803001860197111
:1032A0000521814A1170814AD17093E80300506072
:1032B00011727F4808F092FC04220DEB02014FF4DA
:1032C000005001F0B7FE9DF80430552B00F08580CA
:1032D000784B2C221A7101225A71774B03221A70F3
:1032E0000723764A1370764A1371734B1978754821
:1032F00008F0D8FB714B1978734808F0D3FB734D75
:10330000042229464FF4804001F094FE2B78AA2B2A
:1033100003D16B78552B00F095806C4B32229A705C
:103320006B4808F05BFC694B987802F051FB694DE3
:10333000272229464FF4405001F07CFE6D78242D61
:1033400000F29480A91C6348FFF774FF0446614BA8
:103350001B78552B05D1AB1C5E4AD35CA34200F011
:1033600087805D495D4808F09DFB5D4B24221A7003
:1033700009B0F0BD4A4E002333607360B360F36060
:1033800033616A1E0DF10901304608F075FB6A1EB3
:10339000454B1A70454FFD703046FCF719FF024649
:1033A0003146381D08F068FB31464E4808F07AFB7C
:1033B00082E73B4B3B4A92E80300186019710521F4
:1033C000394A1170394AD17093E803005060117284
:1033D000454808F003FC00246EE7032101A8FFF72D
:1033E00029FF04469DF8073083420DD0314B2C2233
:1033F0001A7101225A71304B70221A7007232F4A1A
:1034000013702F4A137170E79DF8052002EB8203B9
:1034100003EB83039B0027490B71642303FB02F337
:103420001B124B71244B1A709DF80630244A1371FD
:10343000072B02D9134608221A71214B1A791F4B08
:103440001A7052E703212846FFF7F4FE0446EB7892
:10345000834206D01D4B32229A70244808F0BEFBEE
:1034600061E7A978224808F01DFB5CE700256EE7BC
:103470001B4B1D702A461F49174808F0FDFA1E48CD
:1034800008F010FB0024164B1B78A3427FF670AFA8
:10349000114B185D08F01EFB0134E4B2F3E700BFE6
:1034A0000845002054D100081E4B0020D4480020BD
:1034B0005CD10008CC4800201B4B00201F4B002093
:1034C000EC480020ACD10008C8D10008344B0020E3
:1034D00030D20008F44800201C45002058D20008D3
:1034E0002A4B002044D1000884D100080CD20008E7
:1034F000E0D10008F648002054D200082DE9F04140
:10350000C0B004460D461646FF220021684608F06A
:10351000C1FA0CB1FF2D05D9284808F0C3FA40B014
:10352000BDE8F08132462946204601F0BBFC044646
:1035300085B22A4631460DF1070008F09DFAC523F1
:103540008DF80030AA278DF801700B348DF80240F9
:1035500005F10B0633128DF8033003238DF8043088
:1035600010238DF805308DF80630E91D00240DF884
:10357000014005F108030DF8034005F1090889B27F
:103580006846FFF757FE0DF808000A350DF805707C
:103590006FF07F43B2B26946094808F01AF909484A
:1035A00008F080FA06E01DF80410074808F07AFADF
:1035B0000134E4B2A542F6DAB1E700BF7CD20008DC
:1035C0001050002068D2000874D2000870B500289E
:1035D0006AD014460346002A66D0002964D00178D8
:1035E000344A117041785170C078997801EB00210C
:1035F00089B25180304A1278914250D12D4A1088B8
:1036000045F2CA52904204D02C4808F0E7FA00254F
:103610004EE01879274A10719D79587900EB052002
:10362000D080581810F8045C82F80D5110F8035C33
:1036300082F80E5110F8025C82F80F5110F8010C5C
:1036400082F8100122460B39D81D01F069FC85B2C1
:103650001DB91B4808F026FA2AE01A4808F022FA99
:10366000002605E0A15D184808F01CFA0136F6B204
:10367000B3B2AB42F6D323780E4803726378437239
:10368000A3788372E378C3726379227902EB032211
:1036900092B28281A11D0E3008F0EEF908E00B48CD
:1036A00008F09CFA002503E0094808F0FBF9002522
:1036B000E8B270BD384B0020304B0020B0D200087B
:1036C00088D2000898D20008A8D20008BCD200080E
:1036D000D0D200082DE9F04107460D461646804835
:1036E00008F0E0F90024AC4206D2395D7D4808F0CC
:1036F000D9F90134E4B2F6E7002F00F0E680002D9E
:1037000000F0E380002E00F0E080774B1B7803F0A0
:10371000FF08D3B93C78042C02D17B78FC2B04D071
:10372000724808F05BFA0324D3E0FB7804339D422F
:1037300003D06F4808F052FACBE0BA786D4B1A709C
:103740006D4808F04BFA4446C3E0674B1B78DBB288
:10375000012B04D0694808F0A5F90024B9E06848B5
:1037600008F0A0F9ACB2291F89B23846FFF762FD14
:1037700080460146634808F095F9324629463846A6
:10378000FFF724FF002800F0A7805F4B1A8845F25E
:10379000CA539A4240F094805B4B59888C4204D0C3
:1037A0005A4808F01BFA042493E0594808F07AF9C3
:1037B000554B1979032904D0564808F00FFA05240F
:1037C00087E0554808F06EF94F4BD98841F2100355
:1037D000994204D0514808F001FA072479E0504892
:1037E00008F060F9484B197A012904D04D4808F0D7
:1037F000F5F908246DE04C4808F054F9424B9C7AE6
:10380000012C04D0494808F0E9F90A2461E0214676
:10381000474808F047F93C4DE97A464808F042F934
:10382000EB7A013B162B59D8DFE803F00C350C3549
:10383000350C0C320C300C2C0C0C0C320C0C580CC3
:103840002E0C2E000025304EB1893B4808F02AF995
:1038500029463A4808F026F9B389AB422BD196F8AD
:103860000F31434523D196F81031AA2B1AD196F87F
:103870000D3113B196F80E317BB9314808F0AEF92D
:10388000002426E00225DEE70325DCE70625DAE74B
:103890001D4B9D89D7E70125D5E72A4808F09EF9F9
:1038A0000E2416E0284808F099F90D2411E0274865
:1038B00008F094F90DE0264808F090F90C2408E08F
:1038C000244808F08BF9032403E0234808F086F924
:1038D00004242046BDE8F0810F24FAE70B24F8E722
:1038E000DCD20008ECD200081D4B002020D30008D9
:1038F00008D300081C4B0020F4D200088CD5000827
:103900003CD3000850D30008384B00205CD5000899
:103910005CD300083CD500087CD3000820D5000803
:10392000A0D3000804D50008C4D30008E8D40008D8
:10393000E8D300080CD400082CD4000850D40008A8
:1039400064D400087CD4000894D40008B4D40008DF
:10395000CCD4000874D50008A4D5000810B58CB0EC
:1039600000210191252202A808F094F82E4B197825
:1039700017292BD801F00703CA082C48825C42FAA9
:1039800003F313F0010F0DD10023294A1370294AC4
:103990001380294B01221A70234A137801331370C4
:1039A0000CB010BD0131254808F07CF801224FF41D
:1039B000FA711D4B1878FEF71BFD1D4B01221A7082
:1039C00000231C4A13801C4A1370E5E700211A4BA0
:1039D0001970174B1970174B1980134B197001236D
:1039E0008DF80430164A12788DF805208DF80610EF
:1039F0008DF807108DF8083017228DF809208DF802
:103A00000A308DF80B108DF80C100E4C4022204619
:103A100008F040F82246092101A8FFF76FFD0A4887
:103A200008F0DCF8BCE700BF224B0020C8470020AC
:103A30002E4B00202C4B0020234B0020C0D500082B
:103A4000244B002074470020D8D5000810B50B4C3B
:103A5000AA23237055236370A07003212046FFF72B
:103A6000E9FBE0704FF4804001F042FB0422214664
:103A70004FF4804001F00CFB10BD00BF344B002020
:103A80002DE9F04192B0A54C40220021204608F0DB
:103A900001F82246A24B1978A248FFF71BFE044604
:103AA000002840F01E86A04B1B78002B40F0AA8017
:103AB0009E4B1B78073B112B00F29F80DFE803F041
:103AC000099D259D449D9D9D9D9D9D9D9D9D9D9D8B
:103AD0009D660023964A1370964A1370964A138087
:103AE000964A13708F4B1B793BB9954808F076F8CE
:103AF000944B02221A7000F0F9BD924B00221A700A
:103B0000914808F06BF800F0F1BD0023884A13706B
:103B1000884A1370884A1380884A1370814B1B7936
:103B200053B98A4808F05AF8864B03221A70834B1F
:103B300000221A7000F0DABD824B00221A7084480D
:103B400008F04CF800F0D2BD0023794A1370794A8E
:103B50001370794A1380794A1370724B1B796BB9D1
:103B60007C4808F03BF87C4808F038F8754B042294
:103B70001A70724B00221A7000F0B8BD714B00220F
:103B80001A70764808F02AF800F0B0BD0023684AA1
:103B90001370684A1370684A1380684A1370614B47
:103BA0001B7913BB6E4808F019F86B4808F016F83B
:103BB0005C49CA786B4800F8012B053107F05CFFBF
:103BC0000024604B1C705D4B1C70674D01228021EE
:103BD000284605F0BEFE22462021284605F0B9FE03
:103BE000514B01221A7000F081BD564B00221A7011
:103BF0005E4807F0F3FF00F079BD5D4807F052FF23
:103C000000F074BD484B1B78DBB2012B40F065859A
:103C10000021584B1960029103910491059106917E
:103C200007910891222209A807F034FF524BDB7A52
:103C3000013B162B00F25A85DFE813F017003E0017
:103C4000AA00D2000401400164018A01DC0146029D
:103C50007602AB02F30216034503700310046604F8
:103C600058059704A00412053D05FEF7B5FD434C29
:103C700001232370404A527A62700021A170E170E2
:103C8000237163710423A371E1713D4B1A78227291
:103C90005A7862729B78A372E172204D40222846C6
:103CA00007F0F8FE2A460C212046FFF727FC35488E
:103CB00007F094FF00F01ABD184B9B79182B20D900
:103CC0002E4BFA229A700022DA701A722B4C0123C2
:103CD0002370294A527A6270237102226271A371A1
:103CE0000021E1710D4D4022284607F0D3FE2A46FF
:103CF00009212046FFF702FC234807F06FFF00F080
:103D0000F5BC013BDCB22046FEF780FC1B4B0022D9
:103D10009A70DA701D4A125D1A72D7E77447002054
:103D2000304B00201C4A00201D4B00201C4B002063
:103D3000284B0020204B0020264B0020254B002044
:103D4000E8D50008294B0020FCD5000810D6000853
:103D500028D6000840D6000854D600086CD60008C3
:103D600080D60008B44700200018004894D6000808
:103D70009CD0000830470020384B0020CC47002062
:103D800038470020ACD60008C4D600085C470020A5
:103D9000FFF738F8B84C01232370B84A527A6270A2
:103DA0000021A170E1702371032363710423A371C7
:103DB000E171B34B1A7822725A7862729B78A372BF
:103DC000E172B04D4022284607F064FE2A460C21DD
:103DD0002046FFF793FBAC4807F000FF00F086BCDD
:103DE000A84B9B79182B20D9A34BFA229A7000225A
:103DF000DA701A72A04C01232370A04A527A6270C2
:103E0000237104226271A3710021E1719D4D402252
:103E1000284607F03FFE2A4609212046FFF76EFBA1
:103E20009A4807F0DBFE00F061BC013BDCB22046A3
:103E3000FEF766FE904B00229A70DA70944A125D8B
:103E40001A72D7E78C4B012119708C4A527A5A703A
:103E500000229A70DA701971052058719971DA711F
:103E60001A72884B9A798B4B1A701B7823B1894B45
:103E70001B78DBB2182B10D97F4801230372814ACB
:103E80000921FFF73BFB402200217E4807F002FE9C
:103E9000814807F0A3FE00F029BC7A4A0921764840
:103EA000FFF72CFB7B4A1378013BDBB213701078D1
:103EB00001224FF4FA71FEF79BFAE4E76E4C0123FE
:103EC00023706E4A527A62700026A670E6702371E3
:103ED000062363710D23A371E671704B04F108058D
:103EE0000FCB07C52B70674D40223146284607F09F
:103EF000D1FD2A4615212046FFF700FB684807F050
:103F00006DFEF3E35C4C012323705C4A527A6270CD
:103F10000025A570E570237107236371614B1E783E
:103F2000A671E5713246604904F1080007F0A4FD6E
:103F3000544F40222946384607F0ACFD3A4606F178
:103F400008012046FFF7DAFA584807F047FECDE3AC
:103F50004C4B1C79631EDBB2132B29D9464B012233
:103F60001A72454C01252570444B5B7A6370002121
:103F7000A170E170257108236371A571E171414E53
:103F80004022304607F086FD324609212046FFF7E1
:103F9000B5FA474807F022FE642004F037F82A46B5
:103FA0002021444805F0D5FC85F31388FFF71AF962
:103FB000224641490DF1090007F05EFD0134E4B2EB
:103FC0008DF80840214602A8FFF734F912AB1C44D3
:103FD00004F8400C4FF4805001F08AF89DF8082056
:103FE000013202A94FF4805001F052F8224B002216
:103FF0001A72B6E7314C01221146204605F0A9FCA1
:10400000052004F003F80421204605F09BFC01285C
:104010002AD02B4B4FF461721A80002201212748CD
:1040200005F097FC144C01232370144A527A6270F5
:104030000021A170E1702371092363710223A37130
:10404000E1711F4B1B8823721B0A63720D4D4022C6
:10405000284607F01FFD2A460A212046FFF74EFAA0
:10406000184807F0BBFD41E3FDF730FB144A138805
:104070004A331380D1E700BFCC470020384B0020E3
:104080002C47002074470020DCD60008F8D6000832
:104090003C4700205447002014D70008404500202A
:1040A0002CD700081E4B00200845002040D70008F0
:1040B00050D70008001800487A4700200004004844
:1040C0001C47002060D70008C64DAA7902F5FA62A5
:1040D000C54B1A81E9799971297A5971697A1971EF
:1040E000A97AD970E97A99701868596801F03CF991
:1040F000BE4C01232370BE4A527A62700021A17027
:10410000E17023710A226271A371E1712172402270
:10411000284607F0BFFC2A4609212046FFF7EEF9A2
:10412000B44807F05BFDE1E280238DF80430012202
:1041300001A9282001F016F8AF4D284601F03AF801
:10414000AA4C01232370AA4A527A62700021A170FE
:10415000E17023710B2363710623A371E1712B8935
:104160002372AB7963726B79A3722B79E372EB786C
:104170002373AB7863739B4D4022284607F08AFC7B
:104180002A460E212046FFF7B9F99C4807F026FD84
:10419000ACE200250195934FBA79994B1A70FB79DF
:1041A00098490B7055218DF804108DF805208DF875
:1041B0000630032101A8FFF73DF88DF807004FF402
:1041C000005000F095FF04220DEB02014FF4005067
:1041D00000F05EFF854C01262670854B5B7A63708C
:1041E000A570E57026710C236371A671E5712572C7
:1041F00040222946384607F04DFC3A460921204620
:10420000FFF77CF9804807F0E9FC642003F0FEFE2C
:10421000324620217D4805F09CFB86F31388FEF78B
:10422000E1FF724C01232370714A527A62700021BF
:10423000A170E17023710D2363710223A371E171F9
:104240006F4B1B7823726F4B1B786372654D402256
:10425000284607F01FFC2A460A212046FFF74EF9A0
:104260006B4807F0BBFC41E2362005F0B9FD01F0D8
:10427000B5FA362005F0A6FD5C4C012323705C4A9C
:10428000527A62700025A570E57023710E23637168
:104290000223A371E5715F4E338823721B0A637298
:1042A0000A2003F0B3FE4F4F40222946384607F05C
:1042B000F1FB3A460A212046FFF720F9318856489B
:1042C00007F0F0FB12E2362005F08AFD01F086FAD5
:1042D000362005F077FD454C01232370444A527A7D
:1042E00062700021A170E17023710F2363710223BA
:1042F000A371E171494D2B8823721B0A6372394EF9
:104300004022304607F0C6FB32460A212046FFF71E
:10431000F5F82988424807F0C5FBE7E1314B5A79A7
:104320001E7906EB0226B6B2731E9BB2232B1FD951
:104330002E4BF6229A700022DA702C4C0123237047
:104340002B4A527A6270237110226271A37100218C
:10435000E1712172234D4022284607F09BFB2A463B
:1043600009212046FFF7CAF82E4807F037FCBDE1C7
:10437000F7B22D4B1F7032462C492D4807F07CFBBD
:104380002C4807F08FFB254605E0294B585D07F0C8
:10439000A1FB0135EDB2244B1B78AB42F5D8264882
:1043A00007F01CFCDFF894803246204908F1020037
:1043B00007F062FB552388F8003088F80170B51CBF
:1043C000A9B24046FEF736FF08F805004FF440500A
:1043D00000F08EFEF21C92B241464FF4405000F0C5
:1043E00057FE34E07447002000530020CC470020E3
:1043F000384B002074D70008E052002084D7000812
:104400001B4B00201F4B002094D7000800180048C9
:10441000ACD70008504C0020C4D700084E4C0020F8
:10442000D8D70008F0D700082A4B00207A47002090
:104430001C45002054D200081CD90008F448002074
:10444000BB4B195DBB4807F02DFB0134E4B2A5421C
:10445000F6DAB94B00229A70DA706EE7272208A9C3
:104460004FF4405000F0E6FD9DF821502946B34836
:1044700007F018FB242D38D8A91C08A8FEF7DAFE8F
:104480009DF82030552B06D1AB1C12AA134413F80B
:10449000283C834222D00B22A949AA4807F0FAFA05
:1044A0000B25A54C01232370A74A527A6270002184
:1044B000A170E170237111236371A571E171A34EA5
:1044C0004022304607F0E6FA324605F10801204660
:1044D000FFF714F89E4807F081FB07E12A460DF12B
:1044E0002201984807F0C8FADBE7954C954B94E811
:1044F000070003C323F8022B120C1A7021469548BB
:1045000007F0D0FA0B25CCE7934C01224FF4007151
:10451000204605F01EFA052003F078FDFDF7D6F8D9
:1045200000224FF40071204605F013FA824C01235B
:104530002370854A527A62700021A170E170237164
:1045400012226271A371E171844B5B8823727F4DEB
:104550004022284607F09EFA2A4609212046FEF707
:10456000CDFF7F4807F03AFBC0E001237D4A13707E
:104570007D4A13707D4807F031FBB7E0734B9C799F
:10458000DD7921467A4807F08DFA2946794807F007
:1045900089FA694B012119706B4A527A5A700022CC
:1045A0009A70DA7019711521597108219971DA71AF
:1045B000002C43D0204601F00BFAE0B96E4807F01A
:1045C00071FA6E4801F03CFAC8B96D4807F06AFA12
:1045D0006C4EB1786C4807F065FAB378A34212D0FC
:1045E000554B01221A72012D14D0534B0022C3F8EF
:1045F0000920DA6025E0654807F054FAE1E76448ED
:1046000007F050FAE4E72046FFF720FA4A4B002271
:104610001A72E8E701F060FA5E49B1F90020464BF2
:104620005A7212129A72B1F90220DA7212121A73C5
:10463000B1F904205A7312129A7302E0564807F037
:10464000CDFA424C40220021204607F023FA2246B0
:1046500010213948FEF752FF504807F0BFFA45E0F5
:104660004F4B1D781DB3344C01232370364A527AC8
:1046700062700021A170E170237116236371112310
:10468000A371264606F8071F304F4022384607F030
:1046900001FA2A464349304607F0EEF93A46192115
:1046A0002046FEF72BFF404807F098FA1EE03F48EF
:1046B00007F094FA1AE03E4A244B33F8061F9B7821
:1046C000118093703B4B01221A703B4B00221A70F1
:1046D0001D4B5A7A394B1A7008E0394807F0E2F955
:1046E00004E0384B1B78DBB2012B09D00023364A9B
:1046F0001370364A1370364A137012B0BDE8F08159
:104700000D4D2B7000216970FF22AA70EB7029718A
:1047100068710E4C4022204607F0BCF92246062163
:104720002846FEF7EBFE2B4807F058FADEE700BFFD
:10473000F4480020E8D70008CC470020FCD7000848
:104740001C450020D4470020384B0020744700202F
:1047500020D800080CD80008001400481C4700208E
:104760002CD80008214B00201B47002040D800080F
:104770004CD8000860D8000878D80008364B0020D4
:10478000ACD80008344B0020E0D8000894D80008CA
:10479000C8D80008EC520020F8D800080CD900084E
:1047A000B4470020B547002020D9000838D90008B8
:1047B000C8470020234B0020224B0020244B002020
:1047C0008CD500081D4B00201C4B0020304B0020D6
:1047D0002F4B00204CD9000810B5854B1B78012BBE
:1047E0000AD0844B1B78013B032B44D8DFE813F03D
:1047F0000B0051009300D4007E4B01221A707C4BB9
:1048000000221A70EDE77C4A13780133DBB2137093
:104810007A4A00211180032B2ED8794B01221A707D
:10482000FC225A7007229A700C4606E0744B195D00
:10483000744807F037F90134E4B2714BDA78D31CCD
:10484000A342F3DA6E4C40F6FF73043221466E4801
:1048500006F0BFFF002323606360A360E360236171
:104860006361644A13700123684A1370684A1370C5
:10487000684807F017F910BD0023644A13705D4AB9
:1048800013705D4A1370624A1370634807F0A6F90B
:10489000F1E7594A13780133DBB21370574A00210C
:1048A0001180032B2AD85D4B01221A70FC225A700A
:1048B00009229A700222DA700C4606E0574B195D05
:1048C000504807F0EFF80134E4B2544BDA78D31CC7
:1048D000A342F3DA40F6FF73043250494A4806F027
:1048E00078FF444B00221A70484B01221A70484B43
:1048F00002221A704A4807F0D5F8BCE70023434A61
:1049000013703C4A13703C4A1370414A1370454877
:1049100007F064F9AFE7384A13780133DBB213705C
:10492000364A00211180032B29D83F4B01221A70EF
:10493000FC2159700B219970DA70002406E03A4B83
:10494000195D304807F0AEF80134E4B2364BDA783E
:10495000D31CA342F3DA40F6FF73043232492A48EB
:1049600006F037FF234B00221A70284B01221A70E1
:10497000274B03221A702D4807F094F87BE7002399
:10498000224A13701B4A13701B4A1370204A13707B
:10499000274807F023F96EE7174A13780133DBB293
:1049A0001370164A00211180032B13D840F6FF73B1
:1049B00005222049144806F00CFF0E4B00221A7005
:1049C0001A4807F06FF8114B01221A70104B04229D
:1049D0001A7050E700230D4A1370064A1370064AF6
:1049E00013700B4A1370144807F0F8F843E700BF40
:1049F0004E450020294B0020254B0020264B00204F
:104A0000D4480020ECD2000810500020284B002091
:104A1000204B002060D9000870D90008CC48002045
:104A20009CD90008B0D90008EC480020E0D9000863
:104A3000F0D9000858DA00081CDA000870B483B016
:104A400000220EE0930011F8224000F822405C1C86
:104A50000D5D05559C1C0D5D05550333CC5CC454A0
:104A60000132032AEED904231DE099001A1F10F821
:104A700022409DF804506C4000F8234000EB820275
:104A800054789DF805604D1C7440445594789DF809
:104A900006608D1C74404455D2789DF80740033160
:104AA0006240425401332B2B24D85A1E10F8221096
:104AB0008DF8041000EB820255788DF8055094783B
:104AC0008DF80640D2788DF8072013F0030FCCD173
:104AD0000A4E755D345D8DF80540B25C8DF8062098
:104AE000725C8DF807209A0805498A5C6A408DF847
:104AF0000420BAE703B070BC704700BF6CDB00084D
:104B000060DA0008F0B400250FE005EB800403EB49
:104B10008404145D01EB8506F75C7C40F45401339A
:104B2000DBB2032BF1D90135EDB2032D01D80023FF
:104B3000F7E7F0BC704700000022032A18D80023D2
:104B4000032B12D830B400EB83018C5C094D2C5D33
:104B50008C540133DBB2032BF5D90132D2B2032AD4
:104B600001D80023F7E730BC70470132D2B2E4E746
:104B7000704700BF6CDB0008437842794270427A8C
:104B80004271427B427243738378827A827083726D
:104B90008379827B82718373C378C27BC270C27A4D
:104BA000C273C279C272C3717047C3095A001344F9
:104BB00003EBC30383EA4000C0B270472DE9F0471E
:104BC000814600262EE019F826A009EB86046078BD
:104BD00080EA0A00A378E57843405D40FFF7E5FFEF
:104BE00068408AEA000009F82600677894F8028095
:104BF00087EA0800FFF7D9FF684047406770E77809
:104C000088EA0700FFF7D1FF684088EA000884F8C7
:104C1000028087EA0A00FFF7C8FF45407D40E57043
:104C20000136F6B2032ECED9BDE8F0872DE9F04F5C
:104C30008BB000904FF00009A2E0009B13F829B060
:104C400003EB890797F801A097F80280FC78584693
:104C5000FFF7ABFF0190FFF7A8FF0290FFF7A5FF5A
:104C600008905046FFF7A1FF0390FFF79EFF0490C6
:104C7000FFF79BFF06464046FFF797FF0590FFF7BB
:104C800094FF0690FFF791FF05462046FFF78DFF42
:104C90000990FFF78AFF0790FFF787FF019B0299B2
:104CA0004B40DBB208994B40DBB2039A82EA0A021E
:104CB000D2B27240D2B25340069A82EA0802D2B20D
:104CC0006A40D2B2534080EA0402D2B25340009A02
:104CD00002F8293081EA0B03DAB2039B9C46049B5D
:104CE0008CEA0303DBB27340DBB25340059A82EADD
:104CF0000802D2B26A40D2B25340079A6240D2B29E
:104D00004240D2B253407B70029A82EA0B03DBB27C
:104D10004B40DBB286EA0A02D2B25340059A94466F
:104D2000069A96468CEA0202D2B26A40D2B2534048
:104D3000099A5440E4B24440E4B26340BB70019B22
:104D400083EA0B0B5FFA8BFB81EA0B0B5FFA8BFBA1
:104D5000049B83EA0A0A5FFA8AFA86EA0A06F6B22E
:104D60008BEA060685EA0805EDB275401346079AF8
:104D70005340DBB25840C0B26840F87009F10109F5
:104D8000B9F1030F7FF759AF0BB0BDE8F08F00000A
:104D90000022032A18D80023032B12D830B400EBCA
:104DA00083018C5C094D2C5D8C540133DBB2032BE9
:104DB000F5D90132D2B2032A01D80023F7E730BC7B
:104DC00070470132D2B2E4E7704700BF6CDA0008E6
:104DD000437B427A42734279427242784271437015
:104DE0008378827A827083728379827B8271837303
:104DF000C378C279C270C27AC271C27BC272C373F5
:104E0000704770B505460E460A4601460020FFF77A
:104E100079FE012409E02846FFF7D0FE32462946F4
:104E20002046FFF76FFE0134E4B22846FFF784FE08
:104E30002846FFF7A1FE0A2CEDD1324629460A206A
:104E4000FFF760FE70BD70B505460E460A46014686
:104E50000A20FFF757FE092404E02846FFF7E6FE84
:104E6000013CE4B22846FFF7B3FF2846FFF790FF66
:104E7000324629462046FFF745FE002CEDD170BD95
:104E800008B5FFF7DBFD08BD08B50B46014618461F
:104E9000FFF7B7FF08BD08B50B4601461846FFF7F8
:104EA000D2FF08BD2DE9F84F00AFA0B30C469146E4
:104EB000834621B988464046BD46BDE8F88F0D4679
:104EC000002917DB2D1101354FEA0518C246ADEB5D
:104ED000080D6E465FFA88F1E3B2C91A4246C9B2BC
:104EE000684606F0D7FD22465946684606F0C4FDDE
:104EF000002408E001F10F05E4E706EB0411074880
:104F0000FFF7C2FF0134A542F7DC5246314648465E
:104F100006F0B2FDCFE74FF00008CCE720520020AA
:104F2000F8B528B30C4617460646F9B111F00F0F35
:104F300020D1002508E0B5EB231F0BDA06EB0511A5
:104F40000E48FFF7A8FF01352346002CF3DA04F1E1
:104F50000F03F0E7631EF15C0F2901D9102C0BDD64
:104F6000641A22463146384606F086FD2046F8BDD2
:104F70000024FBE70024F9E70024F7E72052002093
:104F800000B585B00023ADF80C30ADF808308DF8D1
:104F90000C004FF47A730093012302AA03A904487A
:104FA00005F070F89DF8080005B05DF804FB00BF3F
:104FB0002C4F002008B5FFF7E3FF08BD08B5FF2020
:104FC000FFF7DEFF08BD000038B50B4D00224FF49F
:104FD0008051284604F0BDFC0520FFF7D1FFFF20DB
:104FE000FFF7CEFF044601224FF48051284604F01B
:104FF000B0FC204638BD00BF0010004810B5084C7A
:1050000000224FF48051204604F0A3FC0620FFF755
:10501000D1FF01224FF48051204604F09AFC10BDCC
:105020000010004808B5FFF7CFFF10F0010FFAD1CC
:1050300008BD000070B504460E46154600224FF428
:105040008051124804F085FC0B20FFF7B3FFC4F336
:105050000740FFF7AFFFC4F30720FFF7ABFFE0B255
:10506000FFF7A8FFA520FFF7A5FF6B1E9CB22DB18F
:10507000FFF7A4FF06F8010B2546F6E701224FF4DF
:105080008051024804F065FC70BD00BF001000486C
:1050900070B504460E461546FFF7B0FF00224FF4E8
:1050A0008051124804F055FC0220FFF783FFC4F33F
:1050B0000740FFF77FFFC4F30720FFF77BFFE0B255
:1050C000FFF778FF0024A3B2AB4205D2305DFFF7B3
:1050D00057FF0134E4B2F6E701224FF48051034850
:1050E00004F037FCFFF79EFF70BD00BF00100048C2
:1050F00038B50446FFF782FF0E4D00224FF4805171
:10510000284604F026FC2020FFF754FFC4F3074094
:10511000FFF750FFC4F30720FFF74CFFE0B2FFF7A3
:1051200049FF01224FF48051284604F012FCFFF79A
:1051300079FF38BD001000480023092804D9013345
:10514000DBB20A38C0B2F8E71B01DBB21843704784
:10515000030903EB830300F00F0000EB4300C0B230
:105160007047000000B585B04FF47A730293019246
:10517000009101230246A221034803F025F900B162
:10518000012005B05DF804FBE04E002000B585B0BD
:105190004FF47A7302930192009101230246A321F6
:1051A000034803F0E5F900B1012005B05DF804FB08
:1051B000E04E00202DE9F04F89B0044600238DF821
:1051C0001F30604A05AB92E8030083E80300012228
:1051D0000DF11F012C20FFF7D9FF20B10126304629
:1051E00009B0BDE8F08F082205A9FFF7CFFF0646FA
:1051F0009DF8140000F07F008DF814009DF8153024
:1052000003F07F039B468DF815309DF8163003F0B0
:105210007F039A468DF816309DF8173003F03F0350
:1052200099468DF817309DF8183003F03F039846E3
:105230008DF818309DF8193003F007038DF81930F8
:105240009DF81A3003F01F031F468DF81A30FFF740
:105250007FFF80B200EB80004500ADB225800BF0EF
:105260007F00FFF775FF8346A0700AF07F00FFF70D
:105270006FFF8246E07009F03F00FFF769FF81464B
:10528000207108F03F00FFF763FF8046607107F070
:105290001F00FFF75DFF0746A0719DF81B00FFF799
:1052A00057FF81B221810395CDF808B0CDF804A055
:1052B000CDF8009043463A46234806F0F3FBA37826
:1052C0003B2B1CD8E3783B2B21D82379172B23D8F1
:1052D0006379013BDBB21E2B23D8A379013BDBB200
:1052E0000B2B23D82389632B25D8022E0BD03EBB52
:1052F0009DF81F30A52B3FF472AF02266FE71348CD
:1053000006F06CFC0226124806F068FC67E71148BC
:1053100006F064FC0226F6E70F4806F05FFC022662
:10532000F1E70E4806F05AFC0226ECE70C4806F0BE
:1053300055FC0226E7E70B4806F050FC0226E2E7A0
:1053400001264CE738CF00086CDC00088CDC000834
:1053500000DD0008A0DC0008B4DC0008C8DC0008A0
:10536000D8DC0008ECDC000870B588B001AB83E83D
:10537000070000238DF81F3001238DF81E30A42371
:105380008DF81D304F4806F029FC9DF806303B2B68
:105390003AD89DF807203B2A3FD89DF808101729D6
:1053A0003FD89DF80900441EE4B21E2C3DD89DF85C
:1053B0000A506C1EE4B20B2C3BD8BDF80C60A6F56D
:1053C000FA64A4B2632C38D8A5248DF81C400024BC
:1053D0008DF814408DF8194030368DF81B6003F0BD
:1053E0007F038DF8153002F07F028DF8162001F052
:1053F0003F018DF8171000F03F008DF8180005F000
:105400001F058DF81A5026E02F4806F0E7FB2F48BD
:1054100006F0E4FB022008B070BD2D4806F0DEFB6C
:10542000F5E72C4806F0DAFBF1E72B4806F0D6FB4F
:10543000EDE72A4806F0D2FBE9E7294806F0CEFB63
:10544000E5E708AB1D1915F80C0CFFF775FE05F81C
:105450000C0C0134E4B2072CF3D9012207A92C204B
:10546000FFF780FE08B10120D5E701220DF11E01F2
:105470002E20FFF777FE08B10120CCE701220DF1C5
:105480001D012F20FFF76EFE08B10120C3E70122A6
:105490000DF11F012820FFF765FE08B10120BAE7D2
:1054A000082205A9FFF75EFE00238DF81E300122B9
:1054B0000DF11E012E20FFF755FE0028ABD0012074
:1054C000A9E700BF34DD00088CDC000800DD00081F
:1054D000A0DC0008B4DC0008C8DC0008D8DC000848
:1054E000ECDC000810B582B0044600238DF80730CC
:1054F00082238DF8063001220DF106012720FFF7E7
:1055000031FE10B1012002B010BD00238DF806302D
:1055100001220DF107012920FFF738FED0B9012C37
:1055200011D0022C18D19DF8073063F077038DF865
:10553000063001220DF106012920FFF713FE002895
:10554000E1D00120DFE79DF8073063F06F038DF8AD
:105550000630EEE70120D6E70220D4E700B583B09D
:10556000012269462720FFF711FE70B99DF800302F
:10557000822B0BD082238DF80430012201A9272031
:10558000FFF7F0FD10B1012000E0012003B05DF84D
:1055900004FB000070B586B001AC84E80E009DF8F5
:1055A00006303B2B38D806469DF807203B2A3CD8CE
:1055B0009DF8081017293CD89DF80900441EE4B254
:1055C0001E2C3AD89DF80A506C1EE4B20B2C38D829
:1055D00000248DF8174003F07F038DF8103002F09F
:1055E0007F028DF8112001F03F018DF8121000F0BC
:1055F0003F008DF8130005F03F058DF81450042C82
:1056000023D806AB1D1915F8080CFFF795FD05F812
:10561000080C0134E4B2F2E72D4806F0DFFA2D4819
:1056200006F0DCFA022006B070BD2B4806F0D6FA70
:10563000F5E72A4806F0D2FAF1E7294806F0CEFA53
:10564000EDE7284806F0CAFAE9E73046FFF74AFFD7
:105650000028E8D101220DF117011020FFF796FD77
:10566000A0BB012E10D0022EDDD19DF8173043F0E3
:1056700060038DF8173001220DF117011020FFF79C
:1056800071FDC8B10120CEE79DF8173043F001034A
:105690008DF8173001220DF117011020FFF762FD80
:1056A00008B10120BFE7012204A90820FFF75AFD35
:1056B0000028B8D00120B6E702220DF111010D201B
:1056C000FFF750FD0028AED00120ACE70120AAE78B
:1056D0008CDC000870DD0008A0DC0008B4DC0008E9
:1056E00048DD00085CDD000800B583B000238DF8BC
:1056F000073001220DF107012B20FFF733FD00B128
:10570000012003B05DF804FB00B587B000230593CA
:1057100010220192012202920393049301A90348EB
:1057200004F026F807B05DF804FB00BF001800483D
:1057300000B587B0002304930593102201920293D1
:10574000039301A9024804F013F807B05DF804FBC5
:105750000018004805E000BF01339BB2012BFAD9C5
:10576000013808B10023F9E770470000F8B50025BB
:105770002E4628E01C461021174804F0E3F818B91B
:10578000631C9BB2002CF5D11420FFF7E3FF10211E
:10579000114804F0D7F8074600B10127022400E0C1
:1057A0001C4610210C4804F0CDF820B1631C9BB2BC
:1057B000002CF5D11C46012C0BD06D00EDB23D4301
:1057C000EDB20136F6B2072E03D8FFF7B1FF02247F
:1057D000D1E72846F8BD00BF001800482DE9F04188
:1057E000554C00220821204604F0B3F840F6B830AA
:1057F00002F00CFCFFF788FF01221021204604F084
:10580000A8F80A20FFF7A6FF00221021204604F086
:10581000A0F84FF4FA70FFF79DFF012210212046F7
:1058200004F097F8FFF784FF012400E01C461021E4
:10583000414804F087F818B1631C9BB2002CF5D1E5
:1058400010213D4804F07EF8002863D1022400E0D6
:105850001C461021384804F075F828B9631C9BB227
:10586000002CF5D1022402E0022400E01C461021A5
:10587000314804F067F818B1631C9BB2002CF5D1D5
:10588000FFF774FF0546FFF771FF0746FFF76EFF4E
:105890000446FFF76BFF0646FFF768FF8046FFF7F9
:1058A00033FF00221021244804F053F8A31955FABD
:1058B00083F357FA83F3DBB2984506D0012208211F
:1058C0001D4804F046F8BDE8F0811C4B1D701C4BD0
:1058D0001F70290289B2394489B21A4B19801A48BB
:1058E00006F0E0F814F0800F0DD1184B1C70184B27
:1058F0001E70210289B2314489B2164B19801648B4
:1059000006F0D0F8DAE7114BFF221A70F343104A81
:105910001370EEE7FF23094A1370094A13700B4A0C
:1059200013700B4A1370FFF7EFFE0022102102489C
:1059300004F00FF8C2E700BF001800484A4C0020EE
:105940004B4C00204E4C0020A4DD00084C4C0020A5
:105950004D4C0020504C0020B0DD000810B584B044
:105960004FF47A730293019200910123024632218F
:10597000074802F029FD30B90446064806F02EF922
:10598000204604B010BD044806F028F90124F7E7CA
:10599000E04E0020BCDD0008D8DD000800B585B071
:1059A0004FF47A730293019200910123024633214E
:1059B000054802F0DDFD10B905B05DF804FB0348B1
:1059C00006F00CF90120F7E7E04E0020F4DD0008B6
:1059D00000B585B08DF8070010F0800F1FD19DF83D
:1059E00007301E2B02D81F238DF8073001220DF13E
:1059F00007013220FFF7B2FFA8B901220DF10F0114
:105A00003220FFF7CBFFA8B99DF80F209DF80710B3
:105A10008A420CD0084806F045F8012007E07F23B1
:105A20008DF80730DBE7054806F0D8F8012005B00F
:105A30005DF804FB0120FAE72CDE000810DE000808
:105A400010B5014601223220FFF7A8FF044608B92D
:105A5000204610BD0146024806F024F8F8E700BFD2
:105A600058DE000800B583B000238DF8073001220E
:105A70000DF107010F20FFF791FF20B99DF80700F6
:105A800003B05DF804FB024806F00CF80120F7E7CC
:105A900078DE000810B582B00024052C0AD804F185
:105AA000280001220DEB0401C0B2FFF777FF01349B
:105AB000E4B2F2E7BDF90000BDF90210BDF904201F
:105AC0000011044B18800911598012119A8002B0FC
:105AD00010BD00BFEC520020F8B500242546274633
